{
  "contractName": "Volunteer",
  "abi": [
    {
      "constant": true,
      "inputs": [
        {
          "name": "",
          "type": "uint256"
        }
      ],
      "name": "students",
      "outputs": [
        {
          "name": "id",
          "type": "uint256"
        },
        {
          "name": "name",
          "type": "string"
        }
      ],
      "payable": false,
      "stateMutability": "view",
      "type": "function",
      "signature": "0x06ead22e"
    },
    {
      "constant": true,
      "inputs": [],
      "name": "servicesCount",
      "outputs": [
        {
          "name": "",
          "type": "uint256"
        }
      ],
      "payable": false,
      "stateMutability": "view",
      "type": "function",
      "signature": "0x0bf08787"
    },
    {
      "constant": true,
      "inputs": [],
      "name": "volunteeringsCount",
      "outputs": [
        {
          "name": "",
          "type": "uint256"
        }
      ],
      "payable": false,
      "stateMutability": "view",
      "type": "function",
      "signature": "0x0c6c8c47"
    },
    {
      "constant": true,
      "inputs": [],
      "name": "studentsCount",
      "outputs": [
        {
          "name": "",
          "type": "uint256"
        }
      ],
      "payable": false,
      "stateMutability": "view",
      "type": "function",
      "signature": "0x68433a3a"
    },
    {
      "constant": true,
      "inputs": [
        {
          "name": "",
          "type": "uint256"
        }
      ],
      "name": "services",
      "outputs": [
        {
          "name": "id",
          "type": "uint256"
        },
        {
          "name": "name",
          "type": "string"
        }
      ],
      "payable": false,
      "stateMutability": "view",
      "type": "function",
      "signature": "0xc22c4f43"
    },
    {
      "constant": true,
      "inputs": [
        {
          "name": "",
          "type": "uint256"
        }
      ],
      "name": "volunteerings",
      "outputs": [
        {
          "name": "studentID",
          "type": "uint256"
        },
        {
          "name": "serviceID",
          "type": "uint256"
        },
        {
          "name": "completed",
          "type": "bool"
        }
      ],
      "payable": false,
      "stateMutability": "view",
      "type": "function",
      "signature": "0xefaa30c8"
    },
    {
      "inputs": [],
      "payable": false,
      "stateMutability": "nonpayable",
      "type": "constructor",
      "signature": "constructor"
    },
    {
      "anonymous": false,
      "inputs": [
        {
          "indexed": true,
          "name": "_studentID",
          "type": "uint256"
        },
        {
          "indexed": true,
          "name": "_serviceID",
          "type": "uint256"
        }
      ],
      "name": "establishVolunteering",
      "type": "event",
      "signature": "0xade03ac31130f29a5a31ae5875f87a610b5b288262361b15839adc33c8b0255e"
    },
    {
      "anonymous": false,
      "inputs": [
        {
          "indexed": true,
          "name": "_volunteeringID",
          "type": "uint256"
        }
      ],
      "name": "approveVolunteeringCompletion",
      "type": "event",
      "signature": "0xc64a2e840022457310bf68a7e3fe0b8e71d99d9fb413ba9ba389368fc83f1ecb"
    }
  ],
  "bytecode": "0x608060405234801561001057600080fd5b5061006060016040805190810160405280600e81526020017f53616d706c6520536572766963650000000000000000000000000000000000008152506100ce640100000000026401000000009004565b6100af60016040805190810160405280600e81526020017f53616d706c652053747564656e74000000000000000000000000000000000000815250610150640100000000026401000000009004565b6100c96000806101d2640100000000026401000000009004565b610310565b60016000815480929190600101919050555060006040805190810160405280848152602001838152509080600181540180825580915050906001820390600052602060002090600202016000909192909190915060008201518160000155602082015181600101908051906020019061014892919061026b565b505050505050565b6003600081548092919060010191905055506002604080519081016040528084815260200183815250908060018154018082558091505090600182039060005260206000209060020201600090919290919091506000820151816000015560208201518160010190805190602001906101ca92919061026b565b505050505050565b60056000815480929190600101919050555060046060604051908101604052808481526020018381526020016000151581525090806001815401808255809150509060018203906000526020600020906003020160009091929091909150600082015181600001556020820151816001015560408201518160020160006101000a81548160ff0219169083151502179055505050505050565b828054600181600116156101000203166002900490600052602060002090601f016020900481019282601f106102ac57805160ff19168380011785556102da565b828001600101855582156102da579182015b828111156102d95782518255916020019190600101906102be565b5b5090506102e791906102eb565b5090565b61030d91905b808211156103095760008160009055506001016102f1565b5090565b90565b6104ef8061031f6000396000f3fe608060405260043610610078576000357c0100000000000000000000000000000000000000000000000000000000900463ffffffff16806306ead22e1461007d5780630bf08787146101385780630c6c8c471461016357806368433a3a1461018e578063c22c4f43146101b9578063efaa30c814610274575b600080fd5b34801561008957600080fd5b506100b6600480360360208110156100a057600080fd5b81019080803590602001909291905050506102d5565b6040518083815260200180602001828103825283818151815260200191508051906020019080838360005b838110156100fc5780820151818401526020810190506100e1565b50505050905090810190601f1680156101295780820380516001836020036101000a031916815260200191505b50935050505060405180910390f35b34801561014457600080fd5b5061014d6103a0565b6040518082815260200191505060405180910390f35b34801561016f57600080fd5b506101786103a6565b6040518082815260200191505060405180910390f35b34801561019a57600080fd5b506101a36103ac565b6040518082815260200191505060405180910390f35b3480156101c557600080fd5b506101f2600480360360208110156101dc57600080fd5b81019080803590602001909291905050506103b2565b6040518083815260200180602001828103825283818151815260200191508051906020019080838360005b8381101561023857808201518184015260208101905061021d565b50505050905090810190601f1680156102655780820380516001836020036101000a031916815260200191505b50935050505060405180910390f35b34801561028057600080fd5b506102ad6004803603602081101561029757600080fd5b810190808035906020019092919050505061047d565b6040518084815260200183815260200182151515158152602001935050505060405180910390f35b6002818154811015156102e457fe5b9060005260206000209060020201600091509050806000015490806001018054600181600116156101000203166002900480601f0160208091040260200160405190810160405280929190818152602001828054600181600116156101000203166002900480156103965780601f1061036b57610100808354040283529160200191610396565b820191906000526020600020905b81548152906001019060200180831161037957829003601f168201915b5050505050905082565b60015481565b60055481565b60035481565b6000818154811015156103c157fe5b9060005260206000209060020201600091509050806000015490806001018054600181600116156101000203166002900480601f0160208091040260200160405190810160405280929190818152602001828054600181600116156101000203166002900480156104735780601f1061044857610100808354040283529160200191610473565b820191906000526020600020905b81548152906001019060200180831161045657829003601f168201915b5050505050905082565b60048181548110151561048c57fe5b90600052602060002090600302016000915090508060000154908060010154908060020160009054906101000a900460ff1690508356fea165627a7a723058209dd8f6893266efc52629164a1fc6733355621069a161cdfc6967c3d93045f3bc0029",
  "source": "pragma solidity >=0.4.22 <0.6.0;\n\ncontract Volunteer {\n\n    struct Service {\n        uint id; \n        string name;\n    }\n\n    struct Student {\n        uint id;\n        string name;\n    }\n\n    struct Volunteering {\n        uint studentID;\n        uint serviceID;\n        bool completed;\n    }\n\n    Service[] public services;\n    uint public servicesCount;\n\n    Student[] public students;\n    uint public studentsCount;\n\n    Volunteering[] public volunteerings;\n    uint public volunteeringsCount;\n\n\n    function addService (uint _id, string memory _name) private {\n        servicesCount ++;\n        services.push(Service({\n            id: _id,\n            name: _name\n        }));\n    }\n\n    function addStudent (uint _id, string memory _name) private {\n        studentsCount ++;\n        students.push(Student({\n            id: _id,\n            name: _name\n        }));\n        \n    }\n\n    function addVolunteering (uint studentID, uint serviceID) private {\n        volunteeringsCount ++;\n        volunteerings.push(Volunteering({\n            studentID: studentID,\n            serviceID: serviceID,\n            completed: false\n        }));\n        \n    }\n\n    function completeVolunteering(uint volunteeringID) private {\n        volunteerings[volunteeringID].completed = true;\n    }\n\n    event establishVolunteering (\n        uint indexed _studentID, \n        uint indexed _serviceID \n    );\n\n    event approveVolunteeringCompletion(\n        uint indexed _volunteeringID\n    );\n    \n\n    // Constructor\n    constructor () public {\n        addService(1, \"Sample Service\");\n        addStudent(1, \"Sample Student\");\n        addVolunteering(0, 0);\n    }\n}",
  "sourcePath": "/home/farshed/Documents/undefined_client/contracts/Volunteer.sol",
  "compiler": {
    "name": "solc",
    "version": "0.5.0+commit.1d4f565a.Emscripten.clang"
  },
  "schemaVersion": "3.0.0",
  "updatedAt": "2018-12-27T05:26:12.543Z",
  "devdoc": {
    "methods": {}
  },
  "userdoc": {
    "methods": {}
  }
}