{
  "contractName": "Volunteer",
  "abi": [
    {
      "constant": true,
      "inputs": [
        {
          "name": "",
          "type": "uint256"
        }
      ],
      "name": "students",
      "outputs": [
        {
          "name": "id",
          "type": "uint256"
        },
        {
          "name": "name",
          "type": "string"
        }
      ],
      "payable": false,
      "stateMutability": "view",
      "type": "function",
      "signature": "0x06ead22e"
    },
    {
      "constant": true,
      "inputs": [
        {
          "name": "",
          "type": "uint256"
        }
      ],
      "name": "serviceProviders",
      "outputs": [
        {
          "name": "id",
          "type": "uint256"
        },
        {
          "name": "name",
          "type": "string"
        }
      ],
      "payable": false,
      "stateMutability": "view",
      "type": "function",
      "signature": "0x0a02dcc7"
    },
    {
      "constant": true,
      "inputs": [],
      "name": "servicesCount",
      "outputs": [
        {
          "name": "",
          "type": "uint256"
        }
      ],
      "payable": false,
      "stateMutability": "view",
      "type": "function",
      "signature": "0x0bf08787"
    },
    {
      "constant": true,
      "inputs": [],
      "name": "volunteeringsCount",
      "outputs": [
        {
          "name": "",
          "type": "uint256"
        }
      ],
      "payable": false,
      "stateMutability": "view",
      "type": "function",
      "signature": "0x0c6c8c47"
    },
    {
      "constant": true,
      "inputs": [],
      "name": "studentsCount",
      "outputs": [
        {
          "name": "",
          "type": "uint256"
        }
      ],
      "payable": false,
      "stateMutability": "view",
      "type": "function",
      "signature": "0x68433a3a"
    },
    {
      "constant": true,
      "inputs": [
        {
          "name": "",
          "type": "uint256"
        }
      ],
      "name": "services",
      "outputs": [
        {
          "name": "id",
          "type": "uint256"
        },
        {
          "name": "maxNum",
          "type": "uint256"
        },
        {
          "name": "currentNum",
          "type": "uint256"
        },
        {
          "name": "name",
          "type": "string"
        },
        {
          "name": "completed",
          "type": "bool"
        },
        {
          "name": "credits",
          "type": "uint256"
        }
      ],
      "payable": false,
      "stateMutability": "view",
      "type": "function",
      "signature": "0xc22c4f43"
    },
    {
      "constant": true,
      "inputs": [],
      "name": "serviceProvidersCount",
      "outputs": [
        {
          "name": "",
          "type": "uint256"
        }
      ],
      "payable": false,
      "stateMutability": "view",
      "type": "function",
      "signature": "0xc3392b16"
    },
    {
      "constant": true,
      "inputs": [
        {
          "name": "",
          "type": "uint256"
        }
      ],
      "name": "volunteerings",
      "outputs": [
        {
          "name": "studentID",
          "type": "uint256"
        },
        {
          "name": "serviceID",
          "type": "uint256"
        },
        {
          "name": "completed",
          "type": "bool"
        }
      ],
      "payable": false,
      "stateMutability": "view",
      "type": "function",
      "signature": "0xefaa30c8"
    },
    {
      "inputs": [],
      "payable": false,
      "stateMutability": "nonpayable",
      "type": "constructor",
      "signature": "constructor"
    },
    {
      "anonymous": false,
      "inputs": [
        {
          "indexed": true,
          "name": "_studentID",
          "type": "uint256"
        },
        {
          "indexed": true,
          "name": "_serviceID",
          "type": "uint256"
        }
      ],
      "name": "EstablishVolunteering",
      "type": "event",
      "signature": "0x3c4829c231ab94cf5b9ddf0f2097e54c2f16aac7b2cfe6930beffaac364d04f0"
    },
    {
      "anonymous": false,
      "inputs": [
        {
          "indexed": true,
          "name": "_volunteeringID",
          "type": "uint256"
        }
      ],
      "name": "ApproveVolunteeringCompletion",
      "type": "event",
      "signature": "0x65c11efd6e79048bcba82f9da6d5149c5e9d5e0a4ef8afac919e1597b2327694"
    },
    {
      "anonymous": false,
      "inputs": [
        {
          "indexed": true,
          "name": "_serviceID",
          "type": "uint256"
        }
      ],
      "name": "ApproveServiceCompletion",
      "type": "event",
      "signature": "0x10bb5c04e48c7f26603f3723dc63b7940957f748fee00701de50b010b2c471e2"
    },
    {
      "constant": false,
      "inputs": [
        {
          "name": "volunteeringID",
          "type": "uint256"
        }
      ],
      "name": "completeVolunteering",
      "outputs": [],
      "payable": false,
      "stateMutability": "nonpayable",
      "type": "function",
      "signature": "0x80068fef"
    },
    {
      "constant": false,
      "inputs": [
        {
          "name": "serviceID",
          "type": "uint256"
        }
      ],
      "name": "completeService",
      "outputs": [],
      "payable": false,
      "stateMutability": "nonpayable",
      "type": "function",
      "signature": "0x2f3ccebd"
    },
    {
      "constant": false,
      "inputs": [
        {
          "name": "name",
          "type": "string"
        },
        {
          "name": "max",
          "type": "uint256"
        },
        {
          "name": "current",
          "type": "uint256"
        },
        {
          "name": "credits",
          "type": "uint256"
        }
      ],
      "name": "setService",
      "outputs": [],
      "payable": false,
      "stateMutability": "nonpayable",
      "type": "function",
      "signature": "0x297be81f"
    },
    {
      "constant": false,
      "inputs": [
        {
          "name": "name",
          "type": "string"
        }
      ],
      "name": "setStudent",
      "outputs": [],
      "payable": false,
      "stateMutability": "nonpayable",
      "type": "function",
      "signature": "0x531df14e"
    },
    {
      "constant": false,
      "inputs": [
        {
          "name": "studentID",
          "type": "uint256"
        },
        {
          "name": "serviceID",
          "type": "uint256"
        }
      ],
      "name": "setVolunteering",
      "outputs": [],
      "payable": false,
      "stateMutability": "nonpayable",
      "type": "function",
      "signature": "0xa8aed274"
    },
    {
      "constant": true,
      "inputs": [
        {
          "name": "id",
          "type": "uint256"
        }
      ],
      "name": "getService",
      "outputs": [
        {
          "name": "",
          "type": "uint256"
        },
        {
          "name": "",
          "type": "uint256"
        },
        {
          "name": "",
          "type": "uint256"
        },
        {
          "name": "",
          "type": "string"
        },
        {
          "name": "",
          "type": "bool"
        },
        {
          "name": "",
          "type": "uint256"
        }
      ],
      "payable": false,
      "stateMutability": "view",
      "type": "function",
      "signature": "0xef0e239b"
    },
    {
      "constant": true,
      "inputs": [
        {
          "name": "id",
          "type": "uint256"
        }
      ],
      "name": "getStudent",
      "outputs": [
        {
          "name": "",
          "type": "uint256"
        },
        {
          "name": "",
          "type": "string"
        }
      ],
      "payable": false,
      "stateMutability": "view",
      "type": "function",
      "signature": "0x642f9163"
    },
    {
      "constant": true,
      "inputs": [
        {
          "name": "id",
          "type": "uint256"
        }
      ],
      "name": "getVolunteering",
      "outputs": [
        {
          "name": "",
          "type": "uint256"
        },
        {
          "name": "",
          "type": "uint256"
        },
        {
          "name": "",
          "type": "bool"
        }
      ],
      "payable": false,
      "stateMutability": "view",
      "type": "function",
      "signature": "0xd0deda0a"
    }
  ],
  "bytecode": "0x60806040523480156200001157600080fd5b50620000676040805190810160405280600881526020017f53657276696365310000000000000000000000000000000000000000000000008152506014600a600462000204640100000000026401000000009004565b620000b66040805190810160405280600881526020017f53747564656e74310000000000000000000000000000000000000000000000008152506200022d640100000000026401000000009004565b6200010b6040805190810160405280600881526020017f5365727669636532000000000000000000000000000000000000000000000000815250600a6005600462000204640100000000026401000000009004565b6200015a6040805190810160405280600881526020017f53747564656e74320000000000000000000000000000000000000000000000008152506200022d640100000000026401000000009004565b620001af6040805190810160405280600881526020017f5365727669636533000000000000000000000000000000000000000000000000815250600f6007600462000204640100000000026401000000009004565b620001fe6040805190810160405280600881526020017f53747564656e74330000000000000000000000000000000000000000000000008152506200022d640100000000026401000000009004565b62000464565b620002276000805490508484878562000250640100000000026401000000009004565b50505050565b6200024d6002805490508262000331640100000000026401000000009004565b50565b600160008154809291906001019190505550600060c06040519081016040528087815260200186815260200185815260200184815260200160001515815260200183815250908060018154018082558091505090600182039060005260206000209060060201600090919290919091506000820151816000015560208201518160010155604082015181600201556060820151816003019080519060200190620002fc929190620003b5565b5060808201518160040160006101000a81548160ff02191690831515021790555060a082015181600501555050505050505050565b600360008154809291906001019190505550600260408051908101604052808481526020018381525090806001815401808255809150509060018203906000526020600020906002020160009091929091909150600082015181600001556020820151816001019080519060200190620003ad929190620003b5565b505050505050565b828054600181600116156101000203166002900490600052602060002090601f016020900481019282601f10620003f857805160ff191683800117855562000429565b8280016001018555821562000429579182015b82811115620004285782518255916020019190600101906200040b565b5b5090506200043891906200043c565b5090565b6200046191905b808211156200045d57600081600090555060010162000443565b5090565b90565b61145980620004746000396000f3fe6080604052600436106100e6576000357c0100000000000000000000000000000000000000000000000000000000900463ffffffff16806306ead22e146100eb5780630a02dcc7146101a65780630bf08787146102615780630c6c8c471461028c578063297be81f146102b75780632f3ccebd1461039d578063531df14e146103d8578063642f9163146104a057806368433a3a1461055b57806380068fef14610586578063a8aed274146105c1578063c22c4f4314610606578063c3392b16146106e1578063d0deda0a1461070c578063ef0e239b1461076d578063efaa30c814610848575b600080fd5b3480156100f757600080fd5b506101246004803603602081101561010e57600080fd5b81019080803590602001909291905050506108a9565b6040518083815260200180602001828103825283818151815260200191508051906020019080838360005b8381101561016a57808201518184015260208101905061014f565b50505050905090810190601f1680156101975780820380516001836020036101000a031916815260200191505b50935050505060405180910390f35b3480156101b257600080fd5b506101df600480360360208110156101c957600080fd5b8101908080359060200190929190505050610974565b6040518083815260200180602001828103825283818151815260200191508051906020019080838360005b8381101561022557808201518184015260208101905061020a565b50505050905090810190601f1680156102525780820380516001836020036101000a031916815260200191505b50935050505060405180910390f35b34801561026d57600080fd5b50610276610a3f565b6040518082815260200191505060405180910390f35b34801561029857600080fd5b506102a1610a45565b6040518082815260200191505060405180910390f35b3480156102c357600080fd5b5061039b600480360360808110156102da57600080fd5b81019080803590602001906401000000008111156102f757600080fd5b82018360208201111561030957600080fd5b8035906020019184600183028401116401000000008311171561032b57600080fd5b91908080601f016020809104026020016040519081016040528093929190818152602001838380828437600081840152601f19601f820116905080830192505050505050509192919290803590602001909291908035906020019092919080359060200190929190505050610a4b565b005b3480156103a957600080fd5b506103d6600480360360208110156103c057600080fd5b8101908080359060200190929190505050610a63565b005b3480156103e457600080fd5b5061049e600480360360208110156103fb57600080fd5b810190808035906020019064010000000081111561041857600080fd5b82018360208201111561042a57600080fd5b8035906020019184600183028401116401000000008311171561044c57600080fd5b91908080601f016020809104026020016040519081016040528093929190818152602001838380828437600081840152601f19601f820116905080830192505050505050509192919290505050610acc565b005b3480156104ac57600080fd5b506104d9600480360360208110156104c357600080fd5b8101908080359060200190929190505050610ade565b6040518083815260200180602001828103825283818151815260200191508051906020019080838360005b8381101561051f578082015181840152602081019050610504565b50505050905090810190601f16801561054c5780820380516001836020036101000a031916815260200191505b50935050505060405180910390f35b34801561056757600080fd5b50610570610ba8565b6040518082815260200191505060405180910390f35b34801561059257600080fd5b506105bf600480360360208110156105a957600080fd5b8101908080359060200190929190505050610bae565b005b3480156105cd57600080fd5b50610604600480360360408110156105e457600080fd5b810190808035906020019092919080359060200190929190505050610c17565b005b34801561061257600080fd5b5061063f6004803603602081101561062957600080fd5b8101908080359060200190929190505050610cab565b604051808781526020018681526020018581526020018060200184151515158152602001838152602001828103825285818151815260200191508051906020019080838360005b838110156106a1578082015181840152602081019050610686565b50505050905090810190601f1680156106ce5780820380516001836020036101000a031916815260200191505b5097505050505050505060405180910390f35b3480156106ed57600080fd5b506106f6610d9b565b6040518082815260200191505060405180910390f35b34801561071857600080fd5b506107456004803603602081101561072f57600080fd5b8101908080359060200190929190505050610da1565b6040518084815260200183815260200182151515158152602001935050505060405180910390f35b34801561077957600080fd5b506107a66004803603602081101561079057600080fd5b8101908080359060200190929190505050610e23565b604051808781526020018681526020018581526020018060200184151515158152602001838152602001828103825285818151815260200191508051906020019080838360005b838110156108085780820151818401526020810190506107ed565b50505050905090810190601f1680156108355780820380516001836020036101000a031916815260200191505b5097505050505050505060405180910390f35b34801561085457600080fd5b506108816004803603602081101561086b57600080fd5b8101908080359060200190929190505050610f90565b6040518084815260200183815260200182151515158152602001935050505060405180910390f35b6002818154811015156108b857fe5b9060005260206000209060020201600091509050806000015490806001018054600181600116156101000203166002900480601f01602080910402602001604051908101604052809291908181526020018280546001816001161561010002031660029004801561096a5780601f1061093f5761010080835404028352916020019161096a565b820191906000526020600020905b81548152906001019060200180831161094d57829003601f168201915b5050505050905082565b60068181548110151561098357fe5b9060005260206000209060030201600091509050806000015490806001018054600181600116156101000203166002900480601f016020809104026020016040519081016040528092919081815260200182805460018160011615610100020316600290048015610a355780601f10610a0a57610100808354040283529160200191610a35565b820191906000526020600020905b815481529060010190602001808311610a1857829003601f168201915b5050505050905082565b60015481565b60055481565b610a5d60008054905084848785610fd6565b50505050565b6001600082815481101515610a7457fe5b906000526020600020906006020160040160006101000a81548160ff021916908315150217905550807f10bb5c04e48c7f26603f3723dc63b7940957f748fee00701de50b010b2c471e260405160405180910390a250565b610adb600280549050826110b5565b50565b6000606082600284815481101515610af257fe5b9060005260206000209060020201600101808054600181600116156101000203166002900480601f016020809104026020016040519081016040528092919081815260200182805460018160011615610100020316600290048015610b985780601f10610b6d57610100808354040283529160200191610b98565b820191906000526020600020905b815481529060010190602001808311610b7b57829003601f168201915b5050505050905091509150915091565b60035481565b6001600482815481101515610bbf57fe5b906000526020600020906003020160020160006101000a81548160ff021916908315150217905550807f65c11efd6e79048bcba82f9da6d5149c5e9d5e0a4ef8afac919e1597b232769460405160405180910390a250565b60035482108015610c29575060015481105b1515610c9d576040517f08c379a00000000000000000000000000000000000000000000000000000000081526004018080602001828103825260208152602001807f496e76616c6964204944206f662073747564656e74206f72207365727669636581525060200191505060405180910390fd5b610ca78282611137565b5050565b600081815481101515610cba57fe5b9060005260206000209060060201600091509050806000015490806001015490806002015490806003018054600181600116156101000203166002900480601f016020809104026020016040519081016040528092919081815260200182805460018160011615610100020316600290048015610d785780601f10610d4d57610100808354040283529160200191610d78565b820191906000526020600020905b815481529060010190602001808311610d5b57829003601f168201915b5050505050908060040160009054906101000a900460ff16908060050154905086565b60075481565b6000806000600484815481101515610db557fe5b906000526020600020906003020160000154600485815481101515610dd657fe5b906000526020600020906003020160010154600486815481101515610df757fe5b906000526020600020906003020160020160009054906101000a900460ff169250925092509193909250565b6000806000606060008086600088815481101515610e3d57fe5b906000526020600020906006020160010154600089815481101515610e5e57fe5b90600052602060002090600602016002015460008a815481101515610e7f57fe5b906000526020600020906006020160030160008b815481101515610e9f57fe5b906000526020600020906006020160040160009054906101000a900460ff1660008c815481101515610ecd57fe5b906000526020600020906006020160050154828054600181600116156101000203166002900480601f016020809104026020016040519081016040528092919081815260200182805460018160011615610100020316600290048015610f745780601f10610f4957610100808354040283529160200191610f74565b820191906000526020600020905b815481529060010190602001808311610f5757829003601f168201915b5050505050925095509550955095509550955091939550919395565b600481815481101515610f9f57fe5b90600052602060002090600302016000915090508060000154908060010154908060020160009054906101000a900460ff16905083565b600160008154809291906001019190505550600060c06040519081016040528087815260200186815260200185815260200184815260200160001515815260200183815250908060018154018082558091505090600182039060005260206000209060060201600090919290919091506000820151816000015560208201518160010155604082015181600201556060820151816003019080519060200190611080929190611388565b5060808201518160040160006101000a81548160ff02191690831515021790555060a082015181600501555050505050505050565b60036000815480929190600101919050555060026040805190810160405280848152602001838152509080600181540180825580915050906001820390600052602060002090600202016000909192909190915060008201518160000155602082015181600101908051906020019061112f929190611388565b505050505050565b60056000815480929190600101919050555060008181548110151561115857fe5b906000526020600020906006020160040160009054906101000a900460ff161515156111ec576040517f08c379a00000000000000000000000000000000000000000000000000000000081526004018080602001828103825260128152602001807f536572766963652069732065787069726564000000000000000000000000000081525060200191505060405180910390fd5b6000818154811015156111fb57fe5b90600052602060002090600602016001015460008281548110151561121c57fe5b9060005260206000209060060201600201541015156112a3576040517f08c379a00000000000000000000000000000000000000000000000000000000081526004018080602001828103825260138152602001807f566f6c756e74656572732065786365656465640000000000000000000000000081525060200191505060405180910390fd5b6000818154811015156112b257fe5b90600052602060002090600602016002016000815480929190600101919050555060046060604051908101604052808481526020018381526020016000151581525090806001815401808255809150509060018203906000526020600020906003020160009091929091909150600082015181600001556020820151816001015560408201518160020160006101000a81548160ff02191690831515021790555050505080827f3c4829c231ab94cf5b9ddf0f2097e54c2f16aac7b2cfe6930beffaac364d04f060405160405180910390a35050565b828054600181600116156101000203166002900490600052602060002090601f016020900481019282601f106113c957805160ff19168380011785556113f7565b828001600101855582156113f7579182015b828111156113f65782518255916020019190600101906113db565b5b5090506114049190611408565b5090565b61142a91905b8082111561142657600081600090555060010161140e565b5090565b9056fea165627a7a7230582007107e121ecf78bcc70142d99eb2ff849738660b3383c8b03676196210e671de0029",
  "source": "pragma solidity >=0.4.22 <0.6.0;\n\ncontract Volunteer {\n\n    struct ServiceProvider{\n        uint id;\n        string name;\n        Service[] services;\n    }\n\n    struct Service {\n        uint id;\n        uint maxNum;\n        uint currentNum; \n        string name;\n        bool completed;\n        uint credits;\n    }\n\n    struct Student {\n        uint id;\n        string name;\n    }\n\n    struct Volunteering {\n        uint studentID;\n        uint serviceID;\n        bool completed;\n    }\n\n    Service[] public services;\n    uint public servicesCount;\n\n    Student[] public students;\n    uint public studentsCount;\n\n    Volunteering[] public volunteerings;\n    uint public volunteeringsCount;\n\n    ServiceProvider[] public serviceProviders;\n    uint public serviceProvidersCount;\n\n\n\n    function addService (uint _id, uint _max, uint _current, string memory _name, uint credits) private {\n        servicesCount ++;\n        services.push(Service({\n            id: _id,\n            maxNum: _max,\n            currentNum: _current,\n            name: _name,\n            completed: false,\n            credits: credits\n        }));\n    }\n\n    function addStudent (uint _id, string memory _name) private {\n        studentsCount ++;\n        students.push(Student({\n            id: _id,\n            name: _name\n        }));\n\n    }\n\n    function addVolunteering (uint studentID, uint serviceID) private {\n        volunteeringsCount ++;\n        \n        require(!services[serviceID].completed, \"Service is expired\");\n        require(services[serviceID].currentNum < services[serviceID].maxNum, \"Volunteers exceeded\");\n        services[serviceID].currentNum++;\n\n        volunteerings.push(Volunteering({\n            studentID: studentID,\n            serviceID: serviceID,\n            completed: false\n        }));\n        emit EstablishVolunteering(studentID, serviceID);\n    }\n\n    function addServiceProvider(uint id, string memory name) private {\n        serviceProvidersCount++;\n        serviceProviders.push(ServiceProvider({\n            id: id,\n            name: name,\n            services: new Service[](100)\n        }));\n    }\n\n    function completeVolunteering(uint volunteeringID) public {\n        volunteerings[volunteeringID].completed = true;\n        emit ApproveVolunteeringCompletion(volunteeringID);\n    }\n\n    function completeService(uint serviceID) public {\n        services[serviceID].completed = true;\n        emit ApproveServiceCompletion(serviceID);\n    }\n\n\n    event EstablishVolunteering (\n        uint indexed _studentID,\n        uint indexed _serviceID\n    );\n\n    event ApproveVolunteeringCompletion(\n        uint indexed _volunteeringID\n    );\n\n    event ApproveServiceCompletion(\n        uint indexed _serviceID\n    );\n\n    // Setters\n\n    function setService(string memory name, uint max, uint current, uint credits) public {\n        addService(services.length, max, current, name, credits);\n    }\n\n    function setStudent(string memory name) public {\n        addStudent(students.length, name);\n    }\n\n    function setVolunteering(uint studentID, uint serviceID) public {\n        require(\n            studentID < studentsCount && serviceID < servicesCount,\n            \"Invalid ID of student or service\"\n        );\n        addVolunteering(studentID, serviceID);\n    }\n\n    // Getters\n\n    function getService(uint id) public view\n        returns(\n        uint, \n        uint, \n        uint,\n        string memory,\n        bool,\n        uint\n        ) {\n        return(\n            id,\n            services[id].maxNum,\n            services[id].currentNum,\n            services[id].name,\n            services[id].completed,\n            services[id].credits\n        );\n    }\n\n    function getStudent(uint id) public view\n        returns(\n        uint,\n        string memory\n        ) {\n        return(\n            id,\n            students[id].name\n        );\n    }\n\n    function getVolunteering(uint id) public view\n        returns(\n        uint,\n        uint,\n        bool\n        ) {\n        return(\n            volunteerings[id].studentID,\n            volunteerings[id].serviceID,\n            volunteerings[id].completed\n        );\n    }\n\n\n    // Constructor\n    constructor () public {\n        setService(\"Service1\", 20, 10, 4);\n        setStudent(\"Student1\");\n\n        setService(\"Service2\", 10, 5, 4);\n        setStudent(\"Student2\");\n\n        setService(\"Service3\", 15, 7, 4);\n        setStudent(\"Student3\");\n    }\n}\n",
  "sourcePath": "/home/farshed/Documents/undefined_client/contracts/Volunteer.sol",
  "compiler": {
    "name": "solc",
    "version": "0.5.0+commit.1d4f565a.Emscripten.clang"
  },
  "schemaVersion": "3.0.0",
  "updatedAt": "2018-12-27T12:41:59.699Z",
  "devdoc": {
    "methods": {}
  },
  "userdoc": {
    "methods": {}
  }
}