{
  "contractName": "Volunteer",
  "abi": [
    {
      "constant": true,
      "inputs": [
        {
          "name": "",
          "type": "uint256"
        }
      ],
      "name": "students",
      "outputs": [
        {
          "name": "id",
          "type": "uint256"
        },
        {
          "name": "name",
          "type": "string"
        }
      ],
      "payable": false,
      "stateMutability": "view",
      "type": "function",
      "signature": "0x06ead22e"
    },
    {
      "constant": true,
      "inputs": [
        {
          "name": "",
          "type": "uint256"
        }
      ],
      "name": "serviceProviders",
      "outputs": [
        {
          "name": "id",
          "type": "uint256"
        },
        {
          "name": "name",
          "type": "string"
        }
      ],
      "payable": false,
      "stateMutability": "view",
      "type": "function",
      "signature": "0x0a02dcc7"
    },
    {
      "constant": true,
      "inputs": [],
      "name": "servicesCount",
      "outputs": [
        {
          "name": "",
          "type": "uint256"
        }
      ],
      "payable": false,
      "stateMutability": "view",
      "type": "function",
      "signature": "0x0bf08787"
    },
    {
      "constant": true,
      "inputs": [],
      "name": "volunteeringsCount",
      "outputs": [
        {
          "name": "",
          "type": "uint256"
        }
      ],
      "payable": false,
      "stateMutability": "view",
      "type": "function",
      "signature": "0x0c6c8c47"
    },
    {
      "constant": true,
      "inputs": [],
      "name": "studentsCount",
      "outputs": [
        {
          "name": "",
          "type": "uint256"
        }
      ],
      "payable": false,
      "stateMutability": "view",
      "type": "function",
      "signature": "0x68433a3a"
    },
    {
      "constant": true,
      "inputs": [
        {
          "name": "",
          "type": "uint256"
        }
      ],
      "name": "services",
      "outputs": [
        {
          "name": "id",
          "type": "uint256"
        },
        {
          "name": "maxNum",
          "type": "uint256"
        },
        {
          "name": "currentNum",
          "type": "uint256"
        },
        {
          "name": "name",
          "type": "string"
        },
        {
          "name": "completed",
          "type": "bool"
        },
        {
          "name": "credits",
          "type": "uint256"
        }
      ],
      "payable": false,
      "stateMutability": "view",
      "type": "function",
      "signature": "0xc22c4f43"
    },
    {
      "constant": true,
      "inputs": [],
      "name": "serviceProvidersCount",
      "outputs": [
        {
          "name": "",
          "type": "uint256"
        }
      ],
      "payable": false,
      "stateMutability": "view",
      "type": "function",
      "signature": "0xc3392b16"
    },
    {
      "constant": true,
      "inputs": [
        {
          "name": "",
          "type": "uint256"
        }
      ],
      "name": "volunteerings",
      "outputs": [
        {
          "name": "studentID",
          "type": "uint256"
        },
        {
          "name": "serviceID",
          "type": "uint256"
        },
        {
          "name": "completed",
          "type": "bool"
        }
      ],
      "payable": false,
      "stateMutability": "view",
      "type": "function",
      "signature": "0xefaa30c8"
    },
    {
      "inputs": [],
      "payable": false,
      "stateMutability": "nonpayable",
      "type": "constructor",
      "signature": "constructor"
    },
    {
      "anonymous": false,
      "inputs": [
        {
          "indexed": true,
          "name": "_studentID",
          "type": "uint256"
        },
        {
          "indexed": true,
          "name": "_serviceID",
          "type": "uint256"
        }
      ],
      "name": "EstablishVolunteering",
      "type": "event",
      "signature": "0x3c4829c231ab94cf5b9ddf0f2097e54c2f16aac7b2cfe6930beffaac364d04f0"
    },
    {
      "anonymous": false,
      "inputs": [
        {
          "indexed": true,
          "name": "_volunteeringID",
          "type": "uint256"
        }
      ],
      "name": "ApproveVolunteeringCompletion",
      "type": "event",
      "signature": "0x65c11efd6e79048bcba82f9da6d5149c5e9d5e0a4ef8afac919e1597b2327694"
    },
    {
      "anonymous": false,
      "inputs": [
        {
          "indexed": true,
          "name": "_serviceID",
          "type": "uint256"
        }
      ],
      "name": "ApproveServiceCompletion",
      "type": "event",
      "signature": "0x10bb5c04e48c7f26603f3723dc63b7940957f748fee00701de50b010b2c471e2"
    },
    {
      "constant": false,
      "inputs": [
        {
          "name": "volunteeringID",
          "type": "uint256"
        }
      ],
      "name": "completeVolunteering",
      "outputs": [],
      "payable": false,
      "stateMutability": "nonpayable",
      "type": "function",
      "signature": "0x80068fef"
    },
    {
      "constant": false,
      "inputs": [
        {
          "name": "serviceID",
          "type": "uint256"
        }
      ],
      "name": "completeService",
      "outputs": [],
      "payable": false,
      "stateMutability": "nonpayable",
      "type": "function",
      "signature": "0x2f3ccebd"
    },
    {
      "constant": false,
      "inputs": [
        {
          "name": "name",
          "type": "string"
        },
        {
          "name": "max",
          "type": "uint256"
        },
        {
          "name": "current",
          "type": "uint256"
        },
        {
          "name": "credits",
          "type": "uint256"
        }
      ],
      "name": "setService",
      "outputs": [],
      "payable": false,
      "stateMutability": "nonpayable",
      "type": "function",
      "signature": "0x297be81f"
    },
    {
      "constant": false,
      "inputs": [
        {
          "name": "id",
          "type": "uint256"
        },
        {
          "name": "name",
          "type": "string"
        }
      ],
      "name": "setStudent",
      "outputs": [],
      "payable": false,
      "stateMutability": "nonpayable",
      "type": "function",
      "signature": "0x09e3b6cd"
    },
    {
      "constant": false,
      "inputs": [
        {
          "name": "studentID",
          "type": "uint256"
        },
        {
          "name": "serviceID",
          "type": "uint256"
        }
      ],
      "name": "setVolunteering",
      "outputs": [],
      "payable": false,
      "stateMutability": "nonpayable",
      "type": "function",
      "signature": "0xa8aed274"
    },
    {
      "constant": true,
      "inputs": [
        {
          "name": "id",
          "type": "uint256"
        }
      ],
      "name": "getService",
      "outputs": [
        {
          "name": "",
          "type": "uint256"
        },
        {
          "name": "",
          "type": "uint256"
        },
        {
          "name": "",
          "type": "uint256"
        },
        {
          "name": "",
          "type": "string"
        },
        {
          "name": "",
          "type": "bool"
        },
        {
          "name": "",
          "type": "uint256"
        }
      ],
      "payable": false,
      "stateMutability": "view",
      "type": "function",
      "signature": "0xef0e239b"
    },
    {
      "constant": true,
      "inputs": [
        {
          "name": "id",
          "type": "uint256"
        }
      ],
      "name": "getStudent",
      "outputs": [
        {
          "name": "",
          "type": "uint256"
        },
        {
          "name": "",
          "type": "uint256"
        },
        {
          "name": "",
          "type": "string"
        }
      ],
      "payable": false,
      "stateMutability": "view",
      "type": "function",
      "signature": "0x642f9163"
    },
    {
      "constant": true,
      "inputs": [
        {
          "name": "id",
          "type": "uint256"
        }
      ],
      "name": "getVolunteering",
      "outputs": [
        {
          "name": "",
          "type": "uint256"
        },
        {
          "name": "",
          "type": "uint256"
        },
        {
          "name": "",
          "type": "bool"
        }
      ],
      "payable": false,
      "stateMutability": "view",
      "type": "function",
      "signature": "0xd0deda0a"
    }
  ],
  "bytecode": "0x60806040523480156200001157600080fd5b50620000676040805190810160405280600881526020017f53657276696365310000000000000000000000000000000000000000000000008152506014600a600462000210640100000000026401000000009004565b620000ba62f455f26040805190810160405280600881526020017f53747564656e743100000000000000000000000000000000000000000000000081525062000239640100000000026401000000009004565b6200010f6040805190810160405280600881526020017f5365727669636532000000000000000000000000000000000000000000000000815250600a6005600462000210640100000000026401000000009004565b6200016262f4571e6040805190810160405280600881526020017f53747564656e743200000000000000000000000000000000000000000000000081525062000239640100000000026401000000009004565b620001b76040805190810160405280600881526020017f5365727669636533000000000000000000000000000000000000000000000000815250600f6007600462000210640100000000026401000000009004565b6200020a62f45b066040805190810160405280600881526020017f53747564656e743300000000000000000000000000000000000000000000000081525062000239640100000000026401000000009004565b6200046c565b620002336000805490508484878562000258640100000000026401000000009004565b50505050565b62000254828262000339640100000000026401000000009004565b5050565b600160008154809291906001019190505550600060c0604051908101604052808781526020018681526020018581526020018481526020016000151581526020018381525090806001815401808255809150509060018203906000526020600020906006020160009091929091909150600082015181600001556020820151816001015560408201518160020155606082015181600301908051906020019062000304929190620003bd565b5060808201518160040160006101000a81548160ff02191690831515021790555060a082015181600501555050505050505050565b600360008154809291906001019190505550600260408051908101604052808481526020018381525090806001815401808255809150509060018203906000526020600020906002020160009091929091909150600082015181600001556020820151816001019080519060200190620003b5929190620003bd565b505050505050565b828054600181600116156101000203166002900490600052602060002090601f016020900481019282601f106200040057805160ff191683800117855562000431565b8280016001018555821562000431579182015b828111156200043057825182559160200191906001019062000413565b5b50905062000440919062000444565b5090565b6200046991905b80821115620004655760008160009055506001016200044b565b5090565b90565b61157c806200047c6000396000f3fe6080604052600436106100e6576000357c0100000000000000000000000000000000000000000000000000000000900463ffffffff16806306ead22e146100eb57806309e3b6cd146101a65780630a02dcc7146102785780630bf08787146103335780630c6c8c471461035e578063297be81f146103895780632f3ccebd1461046f578063642f9163146104aa57806368433a3a1461056c57806380068fef14610597578063a8aed274146105d2578063c22c4f4314610617578063c3392b16146106f2578063d0deda0a1461071d578063ef0e239b1461077e578063efaa30c814610859575b600080fd5b3480156100f757600080fd5b506101246004803603602081101561010e57600080fd5b81019080803590602001909291905050506108ba565b6040518083815260200180602001828103825283818151815260200191508051906020019080838360005b8381101561016a57808201518184015260208101905061014f565b50505050905090810190601f1680156101975780820380516001836020036101000a031916815260200191505b50935050505060405180910390f35b3480156101b257600080fd5b50610276600480360360408110156101c957600080fd5b8101908080359060200190929190803590602001906401000000008111156101f057600080fd5b82018360208201111561020257600080fd5b8035906020019184600183028401116401000000008311171561022457600080fd5b91908080601f016020809104026020016040519081016040528093929190818152602001838380828437600081840152601f19601f820116905080830192505050505050509192919290505050610985565b005b34801561028457600080fd5b506102b16004803603602081101561029b57600080fd5b8101908080359060200190929190505050610993565b6040518083815260200180602001828103825283818151815260200191508051906020019080838360005b838110156102f75780820151818401526020810190506102dc565b50505050905090810190601f1680156103245780820380516001836020036101000a031916815260200191505b50935050505060405180910390f35b34801561033f57600080fd5b50610348610a5e565b6040518082815260200191505060405180910390f35b34801561036a57600080fd5b50610373610a64565b6040518082815260200191505060405180910390f35b34801561039557600080fd5b5061046d600480360360808110156103ac57600080fd5b81019080803590602001906401000000008111156103c957600080fd5b8201836020820111156103db57600080fd5b803590602001918460018302840111640100000000831117156103fd57600080fd5b91908080601f016020809104026020016040519081016040528093929190818152602001838380828437600081840152601f19601f820116905080830192505050505050509192919290803590602001909291908035906020019092919080359060200190929190505050610a6a565b005b34801561047b57600080fd5b506104a86004803603602081101561049257600080fd5b8101908080359060200190929190505050610a82565b005b3480156104b657600080fd5b506104e3600480360360208110156104cd57600080fd5b8101908080359060200190929190505050610aeb565b6040518084815260200183815260200180602001828103825283818151815260200191508051906020019080838360005b8381101561052f578082015181840152602081019050610514565b50505050905090810190601f16801561055c5780820380516001836020036101000a031916815260200191505b5094505050505060405180910390f35b34801561057857600080fd5b50610581610bdb565b6040518082815260200191505060405180910390f35b3480156105a357600080fd5b506105d0600480360360208110156105ba57600080fd5b8101908080359060200190929190505050610be1565b005b3480156105de57600080fd5b50610615600480360360408110156105f557600080fd5b810190808035906020019092919080359060200190929190505050610c4a565b005b34801561062357600080fd5b506106506004803603602081101561063a57600080fd5b8101908080359060200190929190505050610dae565b604051808781526020018681526020018581526020018060200184151515158152602001838152602001828103825285818151815260200191508051906020019080838360005b838110156106b2578082015181840152602081019050610697565b50505050905090810190601f1680156106df5780820380516001836020036101000a031916815260200191505b5097505050505050505060405180910390f35b3480156106fe57600080fd5b50610707610e9e565b6040518082815260200191505060405180910390f35b34801561072957600080fd5b506107566004803603602081101561074057600080fd5b8101908080359060200190929190505050610ea4565b6040518084815260200183815260200182151515158152602001935050505060405180910390f35b34801561078a57600080fd5b506107b7600480360360208110156107a157600080fd5b8101908080359060200190929190505050610f26565b604051808781526020018681526020018581526020018060200184151515158152602001838152602001828103825285818151815260200191508051906020019080838360005b838110156108195780820151818401526020810190506107fe565b50505050905090810190601f1680156108465780820380516001836020036101000a031916815260200191505b5097505050505050505060405180910390f35b34801561086557600080fd5b506108926004803603602081101561087c57600080fd5b8101908080359060200190929190505050611093565b6040518084815260200183815260200182151515158152602001935050505060405180910390f35b6002818154811015156108c957fe5b9060005260206000209060020201600091509050806000015490806001018054600181600116156101000203166002900480601f01602080910402602001604051908101604052809291908181526020018280546001816001161561010002031660029004801561097b5780601f106109505761010080835404028352916020019161097b565b820191906000526020600020905b81548152906001019060200180831161095e57829003601f168201915b5050505050905082565b61098f82826110d9565b5050565b6006818154811015156109a257fe5b9060005260206000209060030201600091509050806000015490806001018054600181600116156101000203166002900480601f016020809104026020016040519081016040528092919081815260200182805460018160011615610100020316600290048015610a545780601f10610a2957610100808354040283529160200191610a54565b820191906000526020600020905b815481529060010190602001808311610a3757829003601f168201915b5050505050905082565b60015481565b60055481565b610a7c6000805490508484878561115b565b50505050565b6001600082815481101515610a9357fe5b906000526020600020906006020160040160006101000a81548160ff021916908315150217905550807f10bb5c04e48c7f26603f3723dc63b7940957f748fee00701de50b010b2c471e260405160405180910390a250565b600080606083600285815481101515610b0057fe5b906000526020600020906002020160000154600286815481101515610b2157fe5b9060005260206000209060020201600101808054600181600116156101000203166002900480601f016020809104026020016040519081016040528092919081815260200182805460018160011615610100020316600290048015610bc75780601f10610b9c57610100808354040283529160200191610bc7565b820191906000526020600020905b815481529060010190602001808311610baa57829003601f168201915b505050505090509250925092509193909250565b60035481565b6001600482815481101515610bf257fe5b906000526020600020906003020160020160006101000a81548160ff021916908315150217905550807f65c11efd6e79048bcba82f9da6d5149c5e9d5e0a4ef8afac919e1597b232769460405160405180910390a250565b6000809050600080600090505b600354811015610ca25784600282815481101515610c7157fe5b9060005260206000209060020201600001541415610c955780915060019250610ca2565b8080600101915050610c57565b50811515610d18576040517f08c379a00000000000000000000000000000000000000000000000000000000081526004018080602001828103825260148152602001807f53747564656e74206973206e6f7420666f756e6400000000000000000000000081525060200191505060405180910390fd5b60035481108015610d2a575060015483105b1515610d9e576040517f08c379a00000000000000000000000000000000000000000000000000000000081526004018080602001828103825260208152602001807f496e76616c6964204944206f662073747564656e74206f72207365727669636581525060200191505060405180910390fd5b610da8818461123a565b50505050565b600081815481101515610dbd57fe5b9060005260206000209060060201600091509050806000015490806001015490806002015490806003018054600181600116156101000203166002900480601f016020809104026020016040519081016040528092919081815260200182805460018160011615610100020316600290048015610e7b5780601f10610e5057610100808354040283529160200191610e7b565b820191906000526020600020905b815481529060010190602001808311610e5e57829003601f168201915b5050505050908060040160009054906101000a900460ff16908060050154905086565b60075481565b6000806000600484815481101515610eb857fe5b906000526020600020906003020160000154600485815481101515610ed957fe5b906000526020600020906003020160010154600486815481101515610efa57fe5b906000526020600020906003020160020160009054906101000a900460ff169250925092509193909250565b6000806000606060008086600088815481101515610f4057fe5b906000526020600020906006020160010154600089815481101515610f6157fe5b90600052602060002090600602016002015460008a815481101515610f8257fe5b906000526020600020906006020160030160008b815481101515610fa257fe5b906000526020600020906006020160040160009054906101000a900460ff1660008c815481101515610fd057fe5b906000526020600020906006020160050154828054600181600116156101000203166002900480601f0160208091040260200160405190810160405280929190818152602001828054600181600116156101000203166002900480156110775780601f1061104c57610100808354040283529160200191611077565b820191906000526020600020905b81548152906001019060200180831161105a57829003601f168201915b5050505050925095509550955095509550955091939550919395565b6004818154811015156110a257fe5b90600052602060002090600302016000915090508060000154908060010154908060020160009054906101000a900460ff16905083565b6003600081548092919060010191905055506002604080519081016040528084815260200183815250908060018154018082558091505090600182039060005260206000209060020201600090919290919091506000820151816000015560208201518160010190805190602001906111539291906114ab565b505050505050565b600160008154809291906001019190505550600060c060405190810160405280878152602001868152602001858152602001848152602001600015158152602001838152509080600181540180825580915050906001820390600052602060002090600602016000909192909190915060008201518160000155602082015181600101556040820151816002015560608201518160030190805190602001906112059291906114ab565b5060808201518160040160006101000a81548160ff02191690831515021790555060a082015181600501555050505050505050565b60056000815480929190600101919050555060008181548110151561125b57fe5b906000526020600020906006020160040160009054906101000a900460ff161515156112ef576040517f08c379a00000000000000000000000000000000000000000000000000000000081526004018080602001828103825260128152602001807f536572766963652069732065787069726564000000000000000000000000000081525060200191505060405180910390fd5b6000818154811015156112fe57fe5b90600052602060002090600602016001015460008281548110151561131f57fe5b9060005260206000209060060201600201541015156113a6576040517f08c379a00000000000000000000000000000000000000000000000000000000081526004018080602001828103825260138152602001807f566f6c756e74656572732065786365656465640000000000000000000000000081525060200191505060405180910390fd5b6000818154811015156113b557fe5b90600052602060002090600602016002016000815480929190600101919050555060046060604051908101604052806002858154811015156113f357fe5b90600052602060002090600202016000015481526020018381526020016000151581525090806001815401808255809150509060018203906000526020600020906003020160009091929091909150600082015181600001556020820151816001015560408201518160020160006101000a81548160ff02191690831515021790555050505080827f3c4829c231ab94cf5b9ddf0f2097e54c2f16aac7b2cfe6930beffaac364d04f060405160405180910390a35050565b828054600181600116156101000203166002900490600052602060002090601f016020900481019282601f106114ec57805160ff191683800117855561151a565b8280016001018555821561151a579182015b828111156115195782518255916020019190600101906114fe565b5b509050611527919061152b565b5090565b61154d91905b80821115611549576000816000905550600101611531565b5090565b9056fea165627a7a72305820da2e1660590de65f91b6e859e605264f48f1afeff0c172db9f23e1a0216c93420029",
  "source": "pragma solidity >=0.4.22 <0.6.0;\n\ncontract Volunteer {\n\n    struct ServiceProvider{\n        uint id;\n        string name;\n        Service[] services;\n    }\n\n    struct Service {\n        uint id;\n        uint maxNum;\n        uint currentNum; \n        string name;\n        bool completed;\n        uint credits;\n    }\n\n    struct Student {\n        uint id;\n        string name;\n    }\n\n    struct Volunteering {\n        uint studentID;\n        uint serviceID;\n        bool completed;\n    }\n\n    Service[] public services;\n    uint public servicesCount;\n\n    Student[] public students;\n    uint public studentsCount;\n\n    Volunteering[] public volunteerings;\n    uint public volunteeringsCount;\n\n    ServiceProvider[] public serviceProviders;\n    uint public serviceProvidersCount;\n\n\n\n    function addService (uint _id, uint _max, uint _current, string memory _name, uint credits) private {\n        servicesCount ++;\n        services.push(Service({\n            id: _id,\n            maxNum: _max,\n            currentNum: _current,\n            name: _name,\n            completed: false,\n            credits: credits\n        }));\n    }\n\n    function addStudent (uint _id, string memory _name) private {\n        studentsCount ++;\n        students.push(Student({\n            id: _id,\n            name: _name\n        }));\n\n    }\n\n    function addVolunteering (uint studentID, uint serviceID) private {\n        volunteeringsCount ++;\n        \n        require(!services[serviceID].completed, \"Service is expired\");\n        require(services[serviceID].currentNum < services[serviceID].maxNum, \"Volunteers exceeded\");\n        services[serviceID].currentNum++;\n\n        volunteerings.push(Volunteering({\n            studentID: students[studentID].id,\n            serviceID: serviceID,\n            completed: false\n        }));\n        emit EstablishVolunteering(studentID, serviceID);\n    }\n\n    function addServiceProvider(uint id, string memory name) private {\n        serviceProvidersCount++;\n        serviceProviders.push(ServiceProvider({\n            id: id,\n            name: name,\n            services: new Service[](100)\n        }));\n    }\n\n    function completeVolunteering(uint volunteeringID) public {\n        volunteerings[volunteeringID].completed = true;\n        emit ApproveVolunteeringCompletion(volunteeringID);\n    }\n\n    function completeService(uint serviceID) public {\n        services[serviceID].completed = true;\n        emit ApproveServiceCompletion(serviceID);\n    }\n\n\n    event EstablishVolunteering (\n        uint indexed _studentID,\n        uint indexed _serviceID\n    );\n\n    event ApproveVolunteeringCompletion(\n        uint indexed _volunteeringID\n    );\n\n    event ApproveServiceCompletion(\n        uint indexed _serviceID\n    );\n\n    // Setters\n\n    function setService(string memory name, uint max, uint current, uint credits) public {\n        addService(services.length, max, current, name, credits);\n    }\n\n    function setStudent(uint id, string memory name) public {\n        addStudent(id, name);\n    }\n\n    function setVolunteering(uint studentID, uint serviceID) public {\n        bool found = false;\n        uint studentListID;\n        for(uint i = 0; i < studentsCount; i++){\n            if(students[i].id == studentID){\n                studentListID = i;\n                found = true;\n                break;\n            }\n        }\n\n        require(found, \"Student is not found\");\n        require(\n            studentListID < studentsCount && serviceID < servicesCount,\n            \"Invalid ID of student or service\"\n        );\n        addVolunteering(studentListID, serviceID);\n    }\n\n    // Getters\n\n    function getService(uint id) public view\n        returns(\n        uint, \n        uint, \n        uint,\n        string memory,\n        bool,\n        uint\n        ) {\n        return(\n            id,\n            services[id].maxNum,\n            services[id].currentNum,\n            services[id].name,\n            services[id].completed,\n            services[id].credits\n        );\n    }\n\n    function getStudent(uint id) public view\n        returns(\n        uint,\n        uint,\n        string memory\n        ) {\n        return(\n            id,\n            students[id].id,\n            students[id].name\n        );\n    }\n\n    function getVolunteering(uint id) public view\n        returns(\n        uint,\n        uint,\n        bool\n        ) {\n        return(\n            volunteerings[id].studentID,\n            volunteerings[id].serviceID,\n            volunteerings[id].completed\n        );\n    }\n\n\n    // Constructor\n    constructor () public {\n        setService(\"Service1\", 20, 10, 4);\n        setStudent(16012786, \"Student1\");\n\n        setService(\"Service2\", 10, 5, 4);\n        setStudent(16013086, \"Student2\");\n\n        setService(\"Service3\", 15, 7, 4);\n        setStudent(16014086, \"Student3\");\n    }\n}\n",
  "sourcePath": "/home/farshed/Documents/undefined_client/contracts/Volunteer.sol",
  "compiler": {
    "name": "solc",
    "version": "0.5.0+commit.1d4f565a.Emscripten.clang"
  },
  "schemaVersion": "3.0.0",
  "updatedAt": "2018-12-27T13:59:50.537Z",
  "devdoc": {
    "methods": {}
  },
  "userdoc": {
    "methods": {}
  }
}