{
  "contractName": "Volunteer",
  "abi": [
    {
      "constant": true,
      "inputs": [
        {
          "name": "",
          "type": "uint256"
        }
      ],
      "name": "students",
      "outputs": [
        {
          "name": "id",
          "type": "uint256"
        },
        {
          "name": "name",
          "type": "string"
        }
      ],
      "payable": false,
      "stateMutability": "view",
      "type": "function",
      "signature": "0x06ead22e"
    },
    {
      "constant": true,
      "inputs": [],
      "name": "servicesCount",
      "outputs": [
        {
          "name": "",
          "type": "uint256"
        }
      ],
      "payable": false,
      "stateMutability": "view",
      "type": "function",
      "signature": "0x0bf08787"
    },
    {
      "constant": true,
      "inputs": [],
      "name": "volunteeringsCount",
      "outputs": [
        {
          "name": "",
          "type": "uint256"
        }
      ],
      "payable": false,
      "stateMutability": "view",
      "type": "function",
      "signature": "0x0c6c8c47"
    },
    {
      "constant": true,
      "inputs": [],
      "name": "studentsCount",
      "outputs": [
        {
          "name": "",
          "type": "uint256"
        }
      ],
      "payable": false,
      "stateMutability": "view",
      "type": "function",
      "signature": "0x68433a3a"
    },
    {
      "constant": true,
      "inputs": [
        {
          "name": "",
          "type": "uint256"
        }
      ],
      "name": "services",
      "outputs": [
        {
          "name": "id",
          "type": "uint256"
        },
        {
          "name": "maxNum",
          "type": "uint256"
        },
        {
          "name": "currentNum",
          "type": "uint256"
        },
        {
          "name": "name",
          "type": "string"
        },
        {
          "name": "completed",
          "type": "bool"
        }
      ],
      "payable": false,
      "stateMutability": "view",
      "type": "function",
      "signature": "0xc22c4f43"
    },
    {
      "constant": true,
      "inputs": [
        {
          "name": "",
          "type": "uint256"
        }
      ],
      "name": "volunteerings",
      "outputs": [
        {
          "name": "studentID",
          "type": "uint256"
        },
        {
          "name": "serviceID",
          "type": "uint256"
        },
        {
          "name": "completed",
          "type": "bool"
        }
      ],
      "payable": false,
      "stateMutability": "view",
      "type": "function",
      "signature": "0xefaa30c8"
    },
    {
      "inputs": [],
      "payable": false,
      "stateMutability": "nonpayable",
      "type": "constructor",
      "signature": "constructor"
    },
    {
      "anonymous": false,
      "inputs": [
        {
          "indexed": true,
          "name": "_studentID",
          "type": "uint256"
        },
        {
          "indexed": true,
          "name": "_serviceID",
          "type": "uint256"
        }
      ],
      "name": "EstablishVolunteering",
      "type": "event",
      "signature": "0x3c4829c231ab94cf5b9ddf0f2097e54c2f16aac7b2cfe6930beffaac364d04f0"
    },
    {
      "anonymous": false,
      "inputs": [
        {
          "indexed": true,
          "name": "_volunteeringID",
          "type": "uint256"
        }
      ],
      "name": "ApproveVolunteeringCompletion",
      "type": "event",
      "signature": "0x65c11efd6e79048bcba82f9da6d5149c5e9d5e0a4ef8afac919e1597b2327694"
    },
    {
      "anonymous": false,
      "inputs": [
        {
          "indexed": true,
          "name": "_serviceID",
          "type": "uint256"
        }
      ],
      "name": "ApproveServiceCompletion",
      "type": "event",
      "signature": "0x10bb5c04e48c7f26603f3723dc63b7940957f748fee00701de50b010b2c471e2"
    },
    {
      "constant": false,
      "inputs": [
        {
          "name": "volunteeringID",
          "type": "uint256"
        }
      ],
      "name": "completeVolunteering",
      "outputs": [],
      "payable": false,
      "stateMutability": "nonpayable",
      "type": "function",
      "signature": "0x80068fef"
    },
    {
      "constant": false,
      "inputs": [
        {
          "name": "serviceID",
          "type": "uint256"
        }
      ],
      "name": "completeService",
      "outputs": [],
      "payable": false,
      "stateMutability": "nonpayable",
      "type": "function",
      "signature": "0x2f3ccebd"
    },
    {
      "constant": false,
      "inputs": [
        {
          "name": "name",
          "type": "string"
        },
        {
          "name": "max",
          "type": "uint256"
        },
        {
          "name": "current",
          "type": "uint256"
        }
      ],
      "name": "setService",
      "outputs": [],
      "payable": false,
      "stateMutability": "nonpayable",
      "type": "function",
      "signature": "0x2c43d0bb"
    },
    {
      "constant": false,
      "inputs": [
        {
          "name": "name",
          "type": "string"
        }
      ],
      "name": "setStudent",
      "outputs": [],
      "payable": false,
      "stateMutability": "nonpayable",
      "type": "function",
      "signature": "0x531df14e"
    },
    {
      "constant": false,
      "inputs": [
        {
          "name": "studentID",
          "type": "uint256"
        },
        {
          "name": "serviceID",
          "type": "uint256"
        }
      ],
      "name": "setVolunteering",
      "outputs": [],
      "payable": false,
      "stateMutability": "nonpayable",
      "type": "function",
      "signature": "0xa8aed274"
    },
    {
      "constant": true,
      "inputs": [
        {
          "name": "id",
          "type": "uint256"
        }
      ],
      "name": "getService",
      "outputs": [
        {
          "name": "",
          "type": "uint256"
        },
        {
          "name": "",
          "type": "uint256"
        },
        {
          "name": "",
          "type": "uint256"
        },
        {
          "name": "",
          "type": "string"
        },
        {
          "name": "",
          "type": "bool"
        }
      ],
      "payable": false,
      "stateMutability": "view",
      "type": "function",
      "signature": "0xef0e239b"
    },
    {
      "constant": true,
      "inputs": [
        {
          "name": "id",
          "type": "uint256"
        }
      ],
      "name": "getStudent",
      "outputs": [
        {
          "name": "",
          "type": "uint256"
        },
        {
          "name": "",
          "type": "string"
        }
      ],
      "payable": false,
      "stateMutability": "view",
      "type": "function",
      "signature": "0x642f9163"
    },
    {
      "constant": true,
      "inputs": [
        {
          "name": "id",
          "type": "uint256"
        }
      ],
      "name": "getVolunteering",
      "outputs": [
        {
          "name": "",
          "type": "uint256"
        },
        {
          "name": "",
          "type": "uint256"
        },
        {
          "name": "",
          "type": "bool"
        }
      ],
      "payable": false,
      "stateMutability": "view",
      "type": "function",
      "signature": "0xd0deda0a"
    }
  ],
  "bytecode": "0x60806040523480156200001157600080fd5b50620000656040805190810160405280600881526020017f53657276696365310000000000000000000000000000000000000000000000008152506014600a620001fe640100000000026401000000009004565b620000b46040805190810160405280600881526020017f53747564656e743100000000000000000000000000000000000000000000000081525062000225640100000000026401000000009004565b620001076040805190810160405280600881526020017f5365727669636532000000000000000000000000000000000000000000000000815250600a6005620001fe640100000000026401000000009004565b620001566040805190810160405280600881526020017f53747564656e743200000000000000000000000000000000000000000000000081525062000225640100000000026401000000009004565b620001a96040805190810160405280600881526020017f5365727669636533000000000000000000000000000000000000000000000000815250600f6007620001fe640100000000026401000000009004565b620001f86040805190810160405280600881526020017f53747564656e743300000000000000000000000000000000000000000000000081525062000225640100000000026401000000009004565b6200044b565b6200022060008054905083838662000248640100000000026401000000009004565b505050565b620002456002805490508262000318640100000000026401000000009004565b50565b600160008154809291906001019190505550600060a06040519081016040528086815260200185815260200184815260200183815260200160001515815250908060018154018082558091505090600182039060005260206000209060050201600090919290919091506000820151816000015560208201518160010155604082015181600201556060820151816003019080519060200190620002ee9291906200039c565b5060808201518160040160006101000a81548160ff02191690831515021790555050505050505050565b600360008154809291906001019190505550600260408051908101604052808481526020018381525090806001815401808255809150509060018203906000526020600020906002020160009091929091909150600082015181600001556020820151816001019080519060200190620003949291906200039c565b505050505050565b828054600181600116156101000203166002900490600052602060002090601f016020900481019282601f10620003df57805160ff191683800117855562000410565b8280016001018555821562000410579182015b828111156200040f578251825591602001919060010190620003f2565b5b5090506200041f919062000423565b5090565b6200044891905b80821115620004445760008160009055506001016200042a565b5090565b90565b6110ad806200045b6000396000f3fe6080604052600436106100d0576000357c0100000000000000000000000000000000000000000000000000000000900463ffffffff16806306ead22e146100d55780630bf08787146101905780630c6c8c47146101bb5780632c43d0bb146101e65780632f3ccebd146102c2578063531df14e146102fd578063642f9163146103c557806368433a3a1461048057806380068fef146104ab578063a8aed274146104e6578063c22c4f431461052b578063d0deda0a146105ff578063ef0e239b14610660578063efaa30c814610734575b600080fd5b3480156100e157600080fd5b5061010e600480360360208110156100f857600080fd5b8101908080359060200190929190505050610795565b6040518083815260200180602001828103825283818151815260200191508051906020019080838360005b83811015610154578082015181840152602081019050610139565b50505050905090810190601f1680156101815780820380516001836020036101000a031916815260200191505b50935050505060405180910390f35b34801561019c57600080fd5b506101a5610860565b6040518082815260200191505060405180910390f35b3480156101c757600080fd5b506101d0610866565b6040518082815260200191505060405180910390f35b3480156101f257600080fd5b506102c06004803603606081101561020957600080fd5b810190808035906020019064010000000081111561022657600080fd5b82018360208201111561023857600080fd5b8035906020019184600183028401116401000000008311171561025a57600080fd5b91908080601f016020809104026020016040519081016040528093929190818152602001838380828437600081840152601f19601f820116905080830192505050505050509192919290803590602001909291908035906020019092919050505061086c565b005b3480156102ce57600080fd5b506102fb600480360360208110156102e557600080fd5b8101908080359060200190929190505050610882565b005b34801561030957600080fd5b506103c36004803603602081101561032057600080fd5b810190808035906020019064010000000081111561033d57600080fd5b82018360208201111561034f57600080fd5b8035906020019184600183028401116401000000008311171561037157600080fd5b91908080601f016020809104026020016040519081016040528093929190818152602001838380828437600081840152601f19601f8201169050808301925050505050505091929192905050506108eb565b005b3480156103d157600080fd5b506103fe600480360360208110156103e857600080fd5b81019080803590602001909291905050506108fd565b6040518083815260200180602001828103825283818151815260200191508051906020019080838360005b83811015610444578082015181840152602081019050610429565b50505050905090810190601f1680156104715780820380516001836020036101000a031916815260200191505b50935050505060405180910390f35b34801561048c57600080fd5b506104956109c7565b6040518082815260200191505060405180910390f35b3480156104b757600080fd5b506104e4600480360360208110156104ce57600080fd5b81019080803590602001909291905050506109cd565b005b3480156104f257600080fd5b506105296004803603604081101561050957600080fd5b810190808035906020019092919080359060200190929190505050610a36565b005b34801561053757600080fd5b506105646004803603602081101561054e57600080fd5b8101908080359060200190929190505050610aca565b604051808681526020018581526020018481526020018060200183151515158152602001828103825284818151815260200191508051906020019080838360005b838110156105c05780820151818401526020810190506105a5565b50505050905090810190601f1680156105ed5780820380516001836020036101000a031916815260200191505b50965050505050505060405180910390f35b34801561060b57600080fd5b506106386004803603602081101561062257600080fd5b8101908080359060200190929190505050610bb4565b6040518084815260200183815260200182151515158152602001935050505060405180910390f35b34801561066c57600080fd5b506106996004803603602081101561068357600080fd5b8101908080359060200190929190505050610c36565b604051808681526020018581526020018481526020018060200183151515158152602001828103825284818151815260200191508051906020019080838360005b838110156106f55780820151818401526020810190506106da565b50505050905090810190601f1680156107225780820380516001836020036101000a031916815260200191505b50965050505050505060405180910390f35b34801561074057600080fd5b5061076d6004803603602081101561075757600080fd5b8101908080359060200190929190505050610d7f565b6040518084815260200183815260200182151515158152602001935050505060405180910390f35b6002818154811015156107a457fe5b9060005260206000209060020201600091509050806000015490806001018054600181600116156101000203166002900480601f0160208091040260200160405190810160405280929190818152602001828054600181600116156101000203166002900480156108565780601f1061082b57610100808354040283529160200191610856565b820191906000526020600020905b81548152906001019060200180831161083957829003601f168201915b5050505050905082565b60015481565b60055481565b61087d600080549050838386610dc5565b505050565b600160008281548110151561089357fe5b906000526020600020906005020160040160006101000a81548160ff021916908315150217905550807f10bb5c04e48c7f26603f3723dc63b7940957f748fee00701de50b010b2c471e260405160405180910390a250565b6108fa60028054905082610e93565b50565b600060608260028481548110151561091157fe5b9060005260206000209060020201600101808054600181600116156101000203166002900480601f0160208091040260200160405190810160405280929190818152602001828054600181600116156101000203166002900480156109b75780601f1061098c576101008083540402835291602001916109b7565b820191906000526020600020905b81548152906001019060200180831161099a57829003601f168201915b5050505050905091509150915091565b60035481565b60016004828154811015156109de57fe5b906000526020600020906003020160020160006101000a81548160ff021916908315150217905550807f65c11efd6e79048bcba82f9da6d5149c5e9d5e0a4ef8afac919e1597b232769460405160405180910390a250565b60035482108015610a48575060015481105b1515610abc576040517f08c379a00000000000000000000000000000000000000000000000000000000081526004018080602001828103825260208152602001807f496e76616c6964204944206f662073747564656e74206f72207365727669636581525060200191505060405180910390fd5b610ac68282610f15565b5050565b600081815481101515610ad957fe5b9060005260206000209060050201600091509050806000015490806001015490806002015490806003018054600181600116156101000203166002900480601f016020809104026020016040519081016040528092919081815260200182805460018160011615610100020316600290048015610b975780601f10610b6c57610100808354040283529160200191610b97565b820191906000526020600020905b815481529060010190602001808311610b7a57829003601f168201915b5050505050908060040160009054906101000a900460ff16905085565b6000806000600484815481101515610bc857fe5b906000526020600020906003020160000154600485815481101515610be957fe5b906000526020600020906003020160010154600486815481101515610c0a57fe5b906000526020600020906003020160020160009054906101000a900460ff169250925092509193909250565b60008060006060600085600087815481101515610c4f57fe5b906000526020600020906005020160010154600088815481101515610c7057fe5b906000526020600020906005020160020154600089815481101515610c9157fe5b906000526020600020906005020160030160008a815481101515610cb157fe5b906000526020600020906005020160040160009054906101000a900460ff16818054600181600116156101000203166002900480601f016020809104026020016040519081016040528092919081815260200182805460018160011615610100020316600290048015610d655780601f10610d3a57610100808354040283529160200191610d65565b820191906000526020600020905b815481529060010190602001808311610d4857829003601f168201915b505050505091509450945094509450945091939590929450565b600481815481101515610d8e57fe5b90600052602060002090600302016000915090508060000154908060010154908060020160009054906101000a900460ff16905083565b600160008154809291906001019190505550600060a06040519081016040528086815260200185815260200184815260200183815260200160001515815250908060018154018082558091505090600182039060005260206000209060050201600090919290919091506000820151816000015560208201518160010155604082015181600201556060820151816003019080519060200190610e69929190610fdc565b5060808201518160040160006101000a81548160ff02191690831515021790555050505050505050565b600360008154809291906001019190505550600260408051908101604052808481526020018381525090806001815401808255809150509060018203906000526020600020906002020160009091929091909150600082015181600001556020820151816001019080519060200190610f0d929190610fdc565b505050505050565b60056000815480929190600101919050555060046060604051908101604052808481526020018381526020016000151581525090806001815401808255809150509060018203906000526020600020906003020160009091929091909150600082015181600001556020820151816001015560408201518160020160006101000a81548160ff02191690831515021790555050505080827f3c4829c231ab94cf5b9ddf0f2097e54c2f16aac7b2cfe6930beffaac364d04f060405160405180910390a35050565b828054600181600116156101000203166002900490600052602060002090601f016020900481019282601f1061101d57805160ff191683800117855561104b565b8280016001018555821561104b579182015b8281111561104a57825182559160200191906001019061102f565b5b509050611058919061105c565b5090565b61107e91905b8082111561107a576000816000905550600101611062565b5090565b9056fea165627a7a72305820002b8e4ff10dcd0050f0d623b115381c6edbd0e820be0e2b867bbf8e18d08c150029",
  "source": "pragma solidity >=0.4.22 <0.6.0;\n\ncontract Volunteer {\n\n    struct Service {\n        uint id;\n        uint maxNum; // Max students who can enroll\n        uint currentNum; // Current enrolled students\n        string name;\n        bool completed;\n    }\n\n    struct Student {\n        uint id;\n        string name;\n    }\n\n    struct Volunteering {\n        uint studentID;\n        uint serviceID;\n        bool completed;\n    }\n\n    Service[] public services;\n    uint public servicesCount;\n\n    Student[] public students;\n    uint public studentsCount;\n\n    Volunteering[] public volunteerings;\n    uint public volunteeringsCount;\n\n\n    function addService (uint _id, uint _max, uint _current, string memory _name) private {\n        servicesCount ++;\n        services.push(Service({\n            id: _id,\n            maxNum: _max,\n            currentNum: _current,\n            name: _name,\n            completed: false\n        }));\n    }\n\n    function addStudent (uint _id, string memory _name) private {\n        studentsCount ++;\n        students.push(Student({\n            id: _id,\n            name: _name\n        }));\n\n    }\n\n    function addVolunteering (uint studentID, uint serviceID) private {\n        volunteeringsCount ++;\n        volunteerings.push(Volunteering({\n            studentID: studentID,\n            serviceID: serviceID,\n            completed: false\n        }));\n        emit EstablishVolunteering(studentID, serviceID);\n    }\n\n    function completeVolunteering(uint volunteeringID) public {\n        volunteerings[volunteeringID].completed = true;\n        emit ApproveVolunteeringCompletion(volunteeringID);\n    }\n\n    function completeService(uint serviceID) public {\n        services[serviceID].completed = true;\n        emit ApproveServiceCompletion(serviceID);\n    }\n\n\n    event EstablishVolunteering (\n        uint indexed _studentID,\n        uint indexed _serviceID\n    );\n\n    event ApproveVolunteeringCompletion(\n        uint indexed _volunteeringID\n    );\n\n    event ApproveServiceCompletion(\n        uint indexed _serviceID\n    );\n\n    // Setters\n\n    function setService(string memory name, uint max, uint current) public {\n        addService(services.length, max, current, name);\n    }\n\n    function setStudent(string memory name) public {\n        addStudent(students.length, name);\n    }\n\n    function setVolunteering(uint studentID, uint serviceID) public {\n        require(\n            studentID < studentsCount && serviceID < servicesCount,\n            \"Invalid ID of student or service\"\n        );\n        addVolunteering(studentID, serviceID);\n    }\n\n    // Getters\n\n    function getService(uint id) public view\n        returns(\n        uint,\n        uint, \n        uint,\n        string memory,\n        bool\n        ) {\n        return(\n            id,\n            services[id].maxNum,\n            services[id].currentNum,\n            services[id].name,\n            services[id].completed\n        );\n    }\n\n    function getStudent(uint id) public view\n        returns(\n        uint,\n        string memory\n        ) {\n        return(\n            id,\n            students[id].name\n        );\n    }\n\n    function getVolunteering(uint id) public view\n        returns(\n        uint,\n        uint,\n        bool\n        ) {\n        return(\n            volunteerings[id].studentID,\n            volunteerings[id].serviceID,\n            volunteerings[id].completed\n        );\n    }\n\n\n    // Constructor\n    constructor () public {\n        setService(\"Service1\", 20, 10);\n        setStudent(\"Student1\");\n\n        setService(\"Service2\", 10, 5);\n        setStudent(\"Student2\");\n\n        setService(\"Service3\", 15, 7);\n        setStudent(\"Student3\");\n    }\n}\n",
  "sourcePath": "/home/farshed/Documents/undefined_client/contracts/Volunteer.sol",
  "compiler": {
    "name": "solc",
    "version": "0.5.0+commit.1d4f565a.Emscripten.clang"
  },
  "schemaVersion": "3.0.0",
  "updatedAt": "2018-12-27T12:08:23.106Z",
  "devdoc": {
    "methods": {}
  },
  "userdoc": {
    "methods": {}
  }
}