{
  "contractName": "Volunteer",
  "abi": [
    {
      "constant": true,
      "inputs": [
        {
          "name": "",
          "type": "uint256"
        }
      ],
      "name": "students",
      "outputs": [
        {
          "name": "id",
          "type": "uint256"
        },
        {
          "name": "name",
          "type": "string"
        }
      ],
      "payable": false,
      "stateMutability": "view",
      "type": "function",
      "signature": "0x06ead22e"
    },
    {
      "constant": true,
      "inputs": [],
      "name": "servicesCount",
      "outputs": [
        {
          "name": "",
          "type": "uint256"
        }
      ],
      "payable": false,
      "stateMutability": "view",
      "type": "function",
      "signature": "0x0bf08787"
    },
    {
      "constant": true,
      "inputs": [],
      "name": "volunteeringsCount",
      "outputs": [
        {
          "name": "",
          "type": "uint256"
        }
      ],
      "payable": false,
      "stateMutability": "view",
      "type": "function",
      "signature": "0x0c6c8c47"
    },
    {
      "constant": true,
      "inputs": [],
      "name": "studentsCount",
      "outputs": [
        {
          "name": "",
          "type": "uint256"
        }
      ],
      "payable": false,
      "stateMutability": "view",
      "type": "function",
      "signature": "0x68433a3a"
    },
    {
      "constant": true,
      "inputs": [
        {
          "name": "",
          "type": "uint256"
        }
      ],
      "name": "services",
      "outputs": [
        {
          "name": "id",
          "type": "uint256"
        },
        {
          "name": "maxNum",
          "type": "uint256"
        },
        {
          "name": "currentNum",
          "type": "uint256"
        },
        {
          "name": "name",
          "type": "string"
        }
      ],
      "payable": false,
      "stateMutability": "view",
      "type": "function",
      "signature": "0xc22c4f43"
    },
    {
      "constant": true,
      "inputs": [
        {
          "name": "",
          "type": "uint256"
        }
      ],
      "name": "volunteerings",
      "outputs": [
        {
          "name": "studentID",
          "type": "uint256"
        },
        {
          "name": "serviceID",
          "type": "uint256"
        },
        {
          "name": "completed",
          "type": "bool"
        }
      ],
      "payable": false,
      "stateMutability": "view",
      "type": "function",
      "signature": "0xefaa30c8"
    },
    {
      "inputs": [],
      "payable": false,
      "stateMutability": "nonpayable",
      "type": "constructor",
      "signature": "constructor"
    },
    {
      "anonymous": false,
      "inputs": [
        {
          "indexed": true,
          "name": "_studentID",
          "type": "uint256"
        },
        {
          "indexed": true,
          "name": "_serviceID",
          "type": "uint256"
        }
      ],
      "name": "EstablishVolunteering",
      "type": "event",
      "signature": "0x3c4829c231ab94cf5b9ddf0f2097e54c2f16aac7b2cfe6930beffaac364d04f0"
    },
    {
      "anonymous": false,
      "inputs": [
        {
          "indexed": true,
          "name": "_volunteeringID",
          "type": "uint256"
        }
      ],
      "name": "ApproveVolunteeringCompletion",
      "type": "event",
      "signature": "0x65c11efd6e79048bcba82f9da6d5149c5e9d5e0a4ef8afac919e1597b2327694"
    },
    {
      "constant": false,
      "inputs": [
        {
          "name": "name",
          "type": "string"
        },
        {
          "name": "max",
          "type": "uint256"
        },
        {
          "name": "current",
          "type": "uint256"
        }
      ],
      "name": "setService",
      "outputs": [],
      "payable": false,
      "stateMutability": "nonpayable",
      "type": "function",
      "signature": "0x2c43d0bb"
    },
    {
      "constant": false,
      "inputs": [
        {
          "name": "name",
          "type": "string"
        }
      ],
      "name": "setStudent",
      "outputs": [],
      "payable": false,
      "stateMutability": "nonpayable",
      "type": "function",
      "signature": "0x531df14e"
    },
    {
      "constant": false,
      "inputs": [
        {
          "name": "studentID",
          "type": "uint256"
        },
        {
          "name": "serviceID",
          "type": "uint256"
        }
      ],
      "name": "setVolunteering",
      "outputs": [],
      "payable": false,
      "stateMutability": "nonpayable",
      "type": "function",
      "signature": "0xa8aed274"
    },
    {
      "constant": true,
      "inputs": [
        {
          "name": "id",
          "type": "uint256"
        }
      ],
      "name": "getService",
      "outputs": [
        {
          "name": "",
          "type": "uint256"
        },
        {
          "name": "",
          "type": "uint256"
        },
        {
          "name": "",
          "type": "uint256"
        },
        {
          "name": "",
          "type": "string"
        }
      ],
      "payable": false,
      "stateMutability": "view",
      "type": "function",
      "signature": "0xef0e239b"
    },
    {
      "constant": true,
      "inputs": [
        {
          "name": "id",
          "type": "uint256"
        }
      ],
      "name": "getStudent",
      "outputs": [
        {
          "name": "",
          "type": "uint256"
        },
        {
          "name": "",
          "type": "string"
        }
      ],
      "payable": false,
      "stateMutability": "view",
      "type": "function",
      "signature": "0x642f9163"
    },
    {
      "constant": true,
      "inputs": [
        {
          "name": "id",
          "type": "uint256"
        }
      ],
      "name": "getVolunteering",
      "outputs": [
        {
          "name": "",
          "type": "uint256"
        },
        {
          "name": "",
          "type": "uint256"
        },
        {
          "name": "",
          "type": "bool"
        }
      ],
      "payable": false,
      "stateMutability": "view",
      "type": "function",
      "signature": "0xd0deda0a"
    }
  ],
  "bytecode": "0x60806040523480156200001157600080fd5b506200006760016014600a6040805190810160405280600e81526020017f53616d706c652053657276696365000000000000000000000000000000000000815250620000da640100000000026401000000009004565b620000b860016040805190810160405280600e81526020017f53616d706c652053747564656e7400000000000000000000000000000000000081525062000181640100000000026401000000009004565b620000d460008062000205640100000000026401000000009004565b6200037b565b60016000815480929190600101919050555060006080604051908101604052808681526020018581526020018481526020018381525090806001815401808255809150509060018203906000526020600020906004020160009091929091909150600082015181600001556020820151816001015560408201518160020155606082015181600301908051906020019062000177929190620002cc565b5050505050505050565b600360008154809291906001019190505550600260408051908101604052808481526020018381525090806001815401808255809150509060018203906000526020600020906002020160009091929091909150600082015181600001556020820151816001019080519060200190620001fd929190620002cc565b505050505050565b60056000815480929190600101919050555060046060604051908101604052808481526020018381526020016000151581525090806001815401808255809150509060018203906000526020600020906003020160009091929091909150600082015181600001556020820151816001015560408201518160020160006101000a81548160ff02191690831515021790555050505080827f3c4829c231ab94cf5b9ddf0f2097e54c2f16aac7b2cfe6930beffaac364d04f060405160405180910390a35050565b828054600181600116156101000203166002900490600052602060002090601f016020900481019282601f106200030f57805160ff191683800117855562000340565b8280016001018555821562000340579182015b828111156200033f57825182559160200191906001019062000322565b5b5090506200034f919062000353565b5090565b6200037891905b80821115620003745760008160009055506001016200035a565b5090565b90565b610e43806200038b6000396000f3fe6080604052600436106100ba576000357c0100000000000000000000000000000000000000000000000000000000900463ffffffff16806306ead22e146100bf5780630bf087871461017a5780630c6c8c47146101a55780632c43d0bb146101d0578063531df14e146102ac578063642f91631461037457806368433a3a1461042f578063a8aed2741461045a578063c22c4f431461049f578063d0deda0a14610568578063ef0e239b146105c9578063efaa30c814610692575b600080fd5b3480156100cb57600080fd5b506100f8600480360360208110156100e257600080fd5b81019080803590602001909291905050506106f3565b6040518083815260200180602001828103825283818151815260200191508051906020019080838360005b8381101561013e578082015181840152602081019050610123565b50505050905090810190601f16801561016b5780820380516001836020036101000a031916815260200191505b50935050505060405180910390f35b34801561018657600080fd5b5061018f6107be565b6040518082815260200191505060405180910390f35b3480156101b157600080fd5b506101ba6107c4565b6040518082815260200191505060405180910390f35b3480156101dc57600080fd5b506102aa600480360360608110156101f357600080fd5b810190808035906020019064010000000081111561021057600080fd5b82018360208201111561022257600080fd5b8035906020019184600183028401116401000000008311171561024457600080fd5b91908080601f016020809104026020016040519081016040528093929190818152602001838380828437600081840152601f19601f82011690508083019250505050505050919291929080359060200190929190803590602001909291905050506107ca565b005b3480156102b857600080fd5b50610372600480360360208110156102cf57600080fd5b81019080803590602001906401000000008111156102ec57600080fd5b8201836020820111156102fe57600080fd5b8035906020019184600183028401116401000000008311171561032057600080fd5b91908080601f016020809104026020016040519081016040528093929190818152602001838380828437600081840152601f19601f8201169050808301925050505050505091929192905050506107e0565b005b34801561038057600080fd5b506103ad6004803603602081101561039757600080fd5b81019080803590602001909291905050506107f2565b6040518083815260200180602001828103825283818151815260200191508051906020019080838360005b838110156103f35780820151818401526020810190506103d8565b50505050905090810190601f1680156104205780820380516001836020036101000a031916815260200191505b50935050505060405180910390f35b34801561043b57600080fd5b506104446108bc565b6040518082815260200191505060405180910390f35b34801561046657600080fd5b5061049d6004803603604081101561047d57600080fd5b8101908080359060200190929190803590602001909291905050506108c2565b005b3480156104ab57600080fd5b506104d8600480360360208110156104c257600080fd5b81019080803590602001909291905050506108d0565b6040518085815260200184815260200183815260200180602001828103825283818151815260200191508051906020019080838360005b8381101561052a57808201518184015260208101905061050f565b50505050905090810190601f1680156105575780820380516001836020036101000a031916815260200191505b509550505050505060405180910390f35b34801561057457600080fd5b506105a16004803603602081101561058b57600080fd5b81019080803590602001909291905050506109a7565b6040518084815260200183815260200182151515158152602001935050505060405180910390f35b3480156105d557600080fd5b50610602600480360360208110156105ec57600080fd5b8101908080359060200190929190505050610a29565b6040518085815260200184815260200183815260200180602001828103825283818151815260200191508051906020019080838360005b83811015610654578082015181840152602081019050610639565b50505050905090810190601f1680156106815780820380516001836020036101000a031916815260200191505b509550505050505060405180910390f35b34801561069e57600080fd5b506106cb600480360360208110156106b557600080fd5b8101908080359060200190929190505050610b3e565b6040518084815260200183815260200182151515158152602001935050505060405180910390f35b60028181548110151561070257fe5b9060005260206000209060020201600091509050806000015490806001018054600181600116156101000203166002900480601f0160208091040260200160405190810160405280929190818152602001828054600181600116156101000203166002900480156107b45780601f10610789576101008083540402835291602001916107b4565b820191906000526020600020905b81548152906001019060200180831161079757829003601f168201915b5050505050905082565b60015481565b60055481565b6107db600080549050838386610b84565b505050565b6107ef60028054905082610c29565b50565b600060608260028481548110151561080657fe5b9060005260206000209060020201600101808054600181600116156101000203166002900480601f0160208091040260200160405190810160405280929190818152602001828054600181600116156101000203166002900480156108ac5780601f10610881576101008083540402835291602001916108ac565b820191906000526020600020905b81548152906001019060200180831161088f57829003601f168201915b5050505050905091509150915091565b60035481565b6108cc8282610cab565b5050565b6000818154811015156108df57fe5b9060005260206000209060040201600091509050806000015490806001015490806002015490806003018054600181600116156101000203166002900480601f01602080910402602001604051908101604052809291908181526020018280546001816001161561010002031660029004801561099d5780601f106109725761010080835404028352916020019161099d565b820191906000526020600020905b81548152906001019060200180831161098057829003601f168201915b5050505050905084565b60008060006004848154811015156109bb57fe5b9060005260206000209060030201600001546004858154811015156109dc57fe5b9060005260206000209060030201600101546004868154811015156109fd57fe5b906000526020600020906003020160020160009054906101000a900460ff169250925092509193909250565b6000806000606084600086815481101515610a4057fe5b906000526020600020906004020160010154600087815481101515610a6157fe5b906000526020600020906004020160020154600088815481101515610a8257fe5b9060005260206000209060040201600301808054600181600116156101000203166002900480601f016020809104026020016040519081016040528092919081815260200182805460018160011615610100020316600290048015610b285780601f10610afd57610100808354040283529160200191610b28565b820191906000526020600020905b815481529060010190602001808311610b0b57829003601f168201915b5050505050905093509350935093509193509193565b600481815481101515610b4d57fe5b90600052602060002090600302016000915090508060000154908060010154908060020160009054906101000a900460ff16905083565b600160008154809291906001019190505550600060806040519081016040528086815260200185815260200184815260200183815250908060018154018082558091505090600182039060005260206000209060040201600090919290919091506000820151816000015560208201518160010155604082015181600201556060820151816003019080519060200190610c1f929190610d72565b5050505050505050565b600360008154809291906001019190505550600260408051908101604052808481526020018381525090806001815401808255809150509060018203906000526020600020906002020160009091929091909150600082015181600001556020820151816001019080519060200190610ca3929190610d72565b505050505050565b60056000815480929190600101919050555060046060604051908101604052808481526020018381526020016000151581525090806001815401808255809150509060018203906000526020600020906003020160009091929091909150600082015181600001556020820151816001015560408201518160020160006101000a81548160ff02191690831515021790555050505080827f3c4829c231ab94cf5b9ddf0f2097e54c2f16aac7b2cfe6930beffaac364d04f060405160405180910390a35050565b828054600181600116156101000203166002900490600052602060002090601f016020900481019282601f10610db357805160ff1916838001178555610de1565b82800160010185558215610de1579182015b82811115610de0578251825591602001919060010190610dc5565b5b509050610dee9190610df2565b5090565b610e1491905b80821115610e10576000816000905550600101610df8565b5090565b9056fea165627a7a72305820fe21f3851ccb14d28cf327a8a2c1c7c1833733d4e6f66591ead3ae6034fc7f210029",
  "source": "pragma solidity >=0.4.22 <0.6.0;\n\ncontract Volunteer {\n\n    struct Service {\n        uint id;\n        uint maxNum; // Max students who can enroll\n        uint currentNum; // Current enrolled students\n        string name;\n    }\n\n    struct Student {\n        uint id;\n        string name;\n    }\n\n    struct Volunteering {\n        uint studentID;\n        uint serviceID;\n        bool completed;\n    }\n\n    Service[] public services;\n    uint public servicesCount;\n\n    Student[] public students;\n    uint public studentsCount;\n\n    Volunteering[] public volunteerings;\n    uint public volunteeringsCount;\n\n\n    function addService (uint _id, uint _max, uint _current, string memory _name) private {\n        servicesCount ++;\n        services.push(Service({\n            id: _id,\n            maxNum: _max,\n            currentNum: _current,\n            name: _name\n        }));\n    }\n\n    function addStudent (uint _id, string memory _name) private {\n        studentsCount ++;\n        students.push(Student({\n            id: _id,\n            name: _name\n        }));\n\n    }\n\n    function addVolunteering (uint studentID, uint serviceID) private {\n        volunteeringsCount ++;\n        volunteerings.push(Volunteering({\n            studentID: studentID,\n            serviceID: serviceID,\n            completed: false\n        }));\n        emit EstablishVolunteering(studentID, serviceID);\n    }\n\n    function completeVolunteering(uint volunteeringID) private {\n        volunteerings[volunteeringID].completed = true;\n        emit ApproveVolunteeringCompletion(volunteeringID);\n    }\n\n    event EstablishVolunteering (\n        uint indexed _studentID,\n        uint indexed _serviceID\n    );\n\n    event ApproveVolunteeringCompletion(\n        uint indexed _volunteeringID\n    );\n\n    // Setters\n\n    function setService(string memory name, uint max, uint current) public {\n        addService(services.length, max, current, name);\n    }\n\n    function setStudent(string memory name) public {\n        addStudent(students.length, name);\n    }\n\n    function setVolunteering(uint studentID, uint serviceID) public {\n        addVolunteering(studentID, serviceID);\n    }\n\n    // Getters\n\n    function getService(uint id) public view\n        returns(\n        uint,\n        uint, \n        uint,\n        string memory\n        ) {\n        return(\n            id,\n            services[id].maxNum,\n            services[id].currentNum,\n            services[id].name\n        );\n    }\n\n    function getStudent(uint id) public view\n        returns(\n        uint,\n        string memory\n        ) {\n        return(\n            id,\n            students[id].name\n        );\n    }\n\n    function getVolunteering(uint id) public view\n        returns(\n        uint,\n        uint,\n        bool\n        ) {\n        return(\n            volunteerings[id].studentID,\n            volunteerings[id].serviceID,\n            volunteerings[id].completed\n        );\n    }\n\n\n    // Constructor\n    constructor () public {\n        addService(1, 20, 10, \"Sample Service\");\n        addStudent(1, \"Sample Student\");\n        addVolunteering(0, 0);\n    }\n}\n",
  "sourcePath": "/home/farshed/Documents/undefined_client/contracts/Volunteer.sol",
  "compiler": {
    "name": "solc",
    "version": "0.5.0+commit.1d4f565a.Emscripten.clang"
  },
  "schemaVersion": "3.0.0",
  "updatedAt": "2018-12-27T10:00:03.290Z",
  "devdoc": {
    "methods": {}
  },
  "userdoc": {
    "methods": {}
  }
}