{
  "contractName": "Volunteer",
  "abi": [
    {
      "constant": true,
      "inputs": [
        {
          "name": "",
          "type": "uint256"
        }
      ],
      "name": "students",
      "outputs": [
        {
          "name": "id",
          "type": "uint256"
        },
        {
          "name": "name",
          "type": "string"
        }
      ],
      "payable": false,
      "stateMutability": "view",
      "type": "function",
      "signature": "0x06ead22e"
    },
    {
      "constant": true,
      "inputs": [
        {
          "name": "",
          "type": "uint256"
        }
      ],
      "name": "serviceProviders",
      "outputs": [
        {
          "name": "id",
          "type": "uint256"
        },
        {
          "name": "name",
          "type": "string"
        }
      ],
      "payable": false,
      "stateMutability": "view",
      "type": "function",
      "signature": "0x0a02dcc7"
    },
    {
      "constant": true,
      "inputs": [],
      "name": "servicesCount",
      "outputs": [
        {
          "name": "",
          "type": "uint256"
        }
      ],
      "payable": false,
      "stateMutability": "view",
      "type": "function",
      "signature": "0x0bf08787"
    },
    {
      "constant": true,
      "inputs": [],
      "name": "volunteeringsCount",
      "outputs": [
        {
          "name": "",
          "type": "uint256"
        }
      ],
      "payable": false,
      "stateMutability": "view",
      "type": "function",
      "signature": "0x0c6c8c47"
    },
    {
      "constant": true,
      "inputs": [],
      "name": "studentsCount",
      "outputs": [
        {
          "name": "",
          "type": "uint256"
        }
      ],
      "payable": false,
      "stateMutability": "view",
      "type": "function",
      "signature": "0x68433a3a"
    },
    {
      "constant": true,
      "inputs": [
        {
          "name": "",
          "type": "uint256"
        }
      ],
      "name": "services",
      "outputs": [
        {
          "name": "id",
          "type": "uint256"
        },
        {
          "name": "maxNum",
          "type": "uint256"
        },
        {
          "name": "currentNum",
          "type": "uint256"
        },
        {
          "name": "name",
          "type": "string"
        },
        {
          "name": "completed",
          "type": "bool"
        },
        {
          "name": "credits",
          "type": "uint256"
        }
      ],
      "payable": false,
      "stateMutability": "view",
      "type": "function",
      "signature": "0xc22c4f43"
    },
    {
      "constant": true,
      "inputs": [],
      "name": "serviceProvidersCount",
      "outputs": [
        {
          "name": "",
          "type": "uint256"
        }
      ],
      "payable": false,
      "stateMutability": "view",
      "type": "function",
      "signature": "0xc3392b16"
    },
    {
      "constant": true,
      "inputs": [
        {
          "name": "",
          "type": "uint256"
        }
      ],
      "name": "volunteerings",
      "outputs": [
        {
          "name": "studentID",
          "type": "uint256"
        },
        {
          "name": "serviceID",
          "type": "uint256"
        },
        {
          "name": "completed",
          "type": "bool"
        }
      ],
      "payable": false,
      "stateMutability": "view",
      "type": "function",
      "signature": "0xefaa30c8"
    },
    {
      "inputs": [],
      "payable": false,
      "stateMutability": "nonpayable",
      "type": "constructor",
      "signature": "constructor"
    },
    {
      "anonymous": false,
      "inputs": [
        {
          "indexed": true,
          "name": "_studentID",
          "type": "uint256"
        },
        {
          "indexed": true,
          "name": "_serviceID",
          "type": "uint256"
        }
      ],
      "name": "EstablishVolunteering",
      "type": "event",
      "signature": "0x3c4829c231ab94cf5b9ddf0f2097e54c2f16aac7b2cfe6930beffaac364d04f0"
    },
    {
      "anonymous": false,
      "inputs": [
        {
          "indexed": true,
          "name": "_volunteeringID",
          "type": "uint256"
        }
      ],
      "name": "ApproveVolunteeringCompletion",
      "type": "event",
      "signature": "0x65c11efd6e79048bcba82f9da6d5149c5e9d5e0a4ef8afac919e1597b2327694"
    },
    {
      "anonymous": false,
      "inputs": [
        {
          "indexed": true,
          "name": "_serviceID",
          "type": "uint256"
        }
      ],
      "name": "ApproveServiceCompletion",
      "type": "event",
      "signature": "0x10bb5c04e48c7f26603f3723dc63b7940957f748fee00701de50b010b2c471e2"
    },
    {
      "constant": false,
      "inputs": [
        {
          "name": "volunteeringID",
          "type": "uint256"
        }
      ],
      "name": "completeVolunteering",
      "outputs": [],
      "payable": false,
      "stateMutability": "nonpayable",
      "type": "function",
      "signature": "0x80068fef"
    },
    {
      "constant": false,
      "inputs": [
        {
          "name": "serviceID",
          "type": "uint256"
        }
      ],
      "name": "completeService",
      "outputs": [],
      "payable": false,
      "stateMutability": "nonpayable",
      "type": "function",
      "signature": "0x2f3ccebd"
    },
    {
      "constant": false,
      "inputs": [
        {
          "name": "name",
          "type": "string"
        },
        {
          "name": "max",
          "type": "uint256"
        },
        {
          "name": "current",
          "type": "uint256"
        },
        {
          "name": "credits",
          "type": "uint256"
        }
      ],
      "name": "setService",
      "outputs": [],
      "payable": false,
      "stateMutability": "nonpayable",
      "type": "function",
      "signature": "0x297be81f"
    },
    {
      "constant": false,
      "inputs": [
        {
          "name": "id",
          "type": "uint256"
        },
        {
          "name": "name",
          "type": "string"
        }
      ],
      "name": "setStudent",
      "outputs": [],
      "payable": false,
      "stateMutability": "nonpayable",
      "type": "function",
      "signature": "0x09e3b6cd"
    },
    {
      "constant": false,
      "inputs": [
        {
          "name": "studentID",
          "type": "uint256"
        },
        {
          "name": "serviceID",
          "type": "uint256"
        }
      ],
      "name": "setVolunteering",
      "outputs": [],
      "payable": false,
      "stateMutability": "nonpayable",
      "type": "function",
      "signature": "0xa8aed274"
    },
    {
      "constant": true,
      "inputs": [
        {
          "name": "id",
          "type": "uint256"
        }
      ],
      "name": "getService",
      "outputs": [
        {
          "name": "",
          "type": "uint256"
        },
        {
          "name": "",
          "type": "uint256"
        },
        {
          "name": "",
          "type": "uint256"
        },
        {
          "name": "",
          "type": "string"
        },
        {
          "name": "",
          "type": "bool"
        },
        {
          "name": "",
          "type": "uint256"
        }
      ],
      "payable": false,
      "stateMutability": "view",
      "type": "function",
      "signature": "0xef0e239b"
    },
    {
      "constant": true,
      "inputs": [
        {
          "name": "id",
          "type": "uint256"
        }
      ],
      "name": "getStudent",
      "outputs": [
        {
          "name": "",
          "type": "uint256"
        },
        {
          "name": "",
          "type": "uint256"
        },
        {
          "name": "",
          "type": "string"
        }
      ],
      "payable": false,
      "stateMutability": "view",
      "type": "function",
      "signature": "0x642f9163"
    },
    {
      "constant": true,
      "inputs": [
        {
          "name": "id",
          "type": "uint256"
        }
      ],
      "name": "getVolunteering",
      "outputs": [
        {
          "name": "",
          "type": "uint256"
        },
        {
          "name": "",
          "type": "uint256"
        },
        {
          "name": "",
          "type": "bool"
        }
      ],
      "payable": false,
      "stateMutability": "view",
      "type": "function",
      "signature": "0xd0deda0a"
    },
    {
      "constant": true,
      "inputs": [
        {
          "name": "id",
          "type": "uint256"
        }
      ],
      "name": "studentExists",
      "outputs": [
        {
          "name": "",
          "type": "bool"
        }
      ],
      "payable": false,
      "stateMutability": "view",
      "type": "function",
      "signature": "0xfd38fb15"
    }
  ],
  "bytecode": "0x60806040523480156200001157600080fd5b50620000676040805190810160405280600881526020017f53657276696365310000000000000000000000000000000000000000000000008152506014600a600462000210640100000000026401000000009004565b620000ba62f455f26040805190810160405280600881526020017f53747564656e743100000000000000000000000000000000000000000000000081525062000239640100000000026401000000009004565b6200010f6040805190810160405280600881526020017f5365727669636532000000000000000000000000000000000000000000000000815250600a6005600462000210640100000000026401000000009004565b6200016262f4571e6040805190810160405280600881526020017f53747564656e743200000000000000000000000000000000000000000000000081525062000239640100000000026401000000009004565b620001b76040805190810160405280600881526020017f5365727669636533000000000000000000000000000000000000000000000000815250600f6007600462000210640100000000026401000000009004565b6200020a62f45b066040805190810160405280600881526020017f53747564656e743300000000000000000000000000000000000000000000000081525062000239640100000000026401000000009004565b6200046c565b620002336000805490508484878562000258640100000000026401000000009004565b50505050565b62000254828262000339640100000000026401000000009004565b5050565b600160008154809291906001019190505550600060c0604051908101604052808781526020018681526020018581526020018481526020016000151581526020018381525090806001815401808255809150509060018203906000526020600020906006020160009091929091909150600082015181600001556020820151816001015560408201518160020155606082015181600301908051906020019062000304929190620003bd565b5060808201518160040160006101000a81548160ff02191690831515021790555060a082015181600501555050505050505050565b600360008154809291906001019190505550600260408051908101604052808481526020018381525090806001815401808255809150509060018203906000526020600020906002020160009091929091909150600082015181600001556020820151816001019080519060200190620003b5929190620003bd565b505050505050565b828054600181600116156101000203166002900490600052602060002090601f016020900481019282601f106200040057805160ff191683800117855562000431565b8280016001018555821562000431579182015b828111156200043057825182559160200191906001019062000413565b5b50905062000440919062000444565b5090565b6200046991905b80821115620004655760008160009055506001016200044b565b5090565b90565b6116b6806200047c6000396000f3fe6080604052600436106100f1576000357c0100000000000000000000000000000000000000000000000000000000900463ffffffff16806306ead22e146100f657806309e3b6cd146101b15780630a02dcc7146102835780630bf087871461033e5780630c6c8c4714610369578063297be81f146103945780632f3ccebd1461047a578063642f9163146104b557806368433a3a1461057757806380068fef146105a2578063a8aed274146105dd578063c22c4f4314610622578063c3392b16146106fd578063d0deda0a14610728578063ef0e239b14610789578063efaa30c814610864578063fd38fb15146108c5575b600080fd5b34801561010257600080fd5b5061012f6004803603602081101561011957600080fd5b8101908080359060200190929190505050610918565b6040518083815260200180602001828103825283818151815260200191508051906020019080838360005b8381101561017557808201518184015260208101905061015a565b50505050905090810190601f1680156101a25780820380516001836020036101000a031916815260200191505b50935050505060405180910390f35b3480156101bd57600080fd5b50610281600480360360408110156101d457600080fd5b8101908080359060200190929190803590602001906401000000008111156101fb57600080fd5b82018360208201111561020d57600080fd5b8035906020019184600183028401116401000000008311171561022f57600080fd5b91908080601f016020809104026020016040519081016040528093929190818152602001838380828437600081840152601f19601f8201169050808301925050505050505091929192905050506109e3565b005b34801561028f57600080fd5b506102bc600480360360208110156102a657600080fd5b81019080803590602001909291905050506109f1565b6040518083815260200180602001828103825283818151815260200191508051906020019080838360005b838110156103025780820151818401526020810190506102e7565b50505050905090810190601f16801561032f5780820380516001836020036101000a031916815260200191505b50935050505060405180910390f35b34801561034a57600080fd5b50610353610abc565b6040518082815260200191505060405180910390f35b34801561037557600080fd5b5061037e610ac2565b6040518082815260200191505060405180910390f35b3480156103a057600080fd5b50610478600480360360808110156103b757600080fd5b81019080803590602001906401000000008111156103d457600080fd5b8201836020820111156103e657600080fd5b8035906020019184600183028401116401000000008311171561040857600080fd5b91908080601f016020809104026020016040519081016040528093929190818152602001838380828437600081840152601f19601f820116905080830192505050505050509192919290803590602001909291908035906020019092919080359060200190929190505050610ac8565b005b34801561048657600080fd5b506104b36004803603602081101561049d57600080fd5b8101908080359060200190929190505050610ae0565b005b3480156104c157600080fd5b506104ee600480360360208110156104d857600080fd5b8101908080359060200190929190505050610b49565b6040518084815260200183815260200180602001828103825283818151815260200191508051906020019080838360005b8381101561053a57808201518184015260208101905061051f565b50505050905090810190601f1680156105675780820380516001836020036101000a031916815260200191505b5094505050505060405180910390f35b34801561058357600080fd5b5061058c610cb6565b6040518082815260200191505060405180910390f35b3480156105ae57600080fd5b506105db600480360360208110156105c557600080fd5b8101908080359060200190929190505050610cbc565b005b3480156105e957600080fd5b506106206004803603604081101561060057600080fd5b810190808035906020019092919080359060200190929190505050610d25565b005b34801561062e57600080fd5b5061065b6004803603602081101561064557600080fd5b8101908080359060200190929190505050610e89565b604051808781526020018681526020018581526020018060200184151515158152602001838152602001828103825285818151815260200191508051906020019080838360005b838110156106bd5780820151818401526020810190506106a2565b50505050905090810190601f1680156106ea5780820380516001836020036101000a031916815260200191505b5097505050505050505060405180910390f35b34801561070957600080fd5b50610712610f79565b6040518082815260200191505060405180910390f35b34801561073457600080fd5b506107616004803603602081101561074b57600080fd5b8101908080359060200190929190505050610f7f565b6040518084815260200183815260200182151515158152602001935050505060405180910390f35b34801561079557600080fd5b506107c2600480360360208110156107ac57600080fd5b8101908080359060200190929190505050611001565b604051808781526020018681526020018581526020018060200184151515158152602001838152602001828103825285818151815260200191508051906020019080838360005b83811015610824578082015181840152602081019050610809565b50505050905090810190601f1680156108515780820380516001836020036101000a031916815260200191505b5097505050505050505060405180910390f35b34801561087057600080fd5b5061089d6004803603602081101561088757600080fd5b810190808035906020019092919050505061116e565b6040518084815260200183815260200182151515158152602001935050505060405180910390f35b3480156108d157600080fd5b506108fe600480360360208110156108e857600080fd5b81019080803590602001909291905050506111b4565b604051808215151515815260200191505060405180910390f35b60028181548110151561092757fe5b9060005260206000209060020201600091509050806000015490806001018054600181600116156101000203166002900480601f0160208091040260200160405190810160405280929190818152602001828054600181600116156101000203166002900480156109d95780601f106109ae576101008083540402835291602001916109d9565b820191906000526020600020905b8154815290600101906020018083116109bc57829003601f168201915b5050505050905082565b6109ed8282611213565b5050565b600681815481101515610a0057fe5b9060005260206000209060030201600091509050806000015490806001018054600181600116156101000203166002900480601f016020809104026020016040519081016040528092919081815260200182805460018160011615610100020316600290048015610ab25780601f10610a8757610100808354040283529160200191610ab2565b820191906000526020600020905b815481529060010190602001808311610a9557829003601f168201915b5050505050905082565b60015481565b60055481565b610ada60008054905084848785611295565b50505050565b6001600082815481101515610af157fe5b906000526020600020906006020160040160006101000a81548160ff021916908315150217905550807f10bb5c04e48c7f26603f3723dc63b7940957f748fee00701de50b010b2c471e260405160405180910390a250565b6000806060610b57846111b4565b1515610bcb576040517f08c379a00000000000000000000000000000000000000000000000000000000081526004018080602001828103825260178152602001807f53747564656e7420646f6573206e6f742065786973742e00000000000000000081525060200191505060405180910390fd5b83600285815481101515610bdb57fe5b906000526020600020906002020160000154600286815481101515610bfc57fe5b9060005260206000209060020201600101808054600181600116156101000203166002900480601f016020809104026020016040519081016040528092919081815260200182805460018160011615610100020316600290048015610ca25780601f10610c7757610100808354040283529160200191610ca2565b820191906000526020600020905b815481529060010190602001808311610c8557829003601f168201915b505050505090509250925092509193909250565b60035481565b6001600482815481101515610ccd57fe5b906000526020600020906003020160020160006101000a81548160ff021916908315150217905550807f65c11efd6e79048bcba82f9da6d5149c5e9d5e0a4ef8afac919e1597b232769460405160405180910390a250565b6000809050600080600090505b600354811015610d7d5784600282815481101515610d4c57fe5b9060005260206000209060020201600001541415610d705780915060019250610d7d565b8080600101915050610d32565b50811515610df3576040517f08c379a00000000000000000000000000000000000000000000000000000000081526004018080602001828103825260148152602001807f53747564656e74206973206e6f7420666f756e6400000000000000000000000081525060200191505060405180910390fd5b60035481108015610e05575060015483105b1515610e79576040517f08c379a00000000000000000000000000000000000000000000000000000000081526004018080602001828103825260208152602001807f496e76616c6964204944206f662073747564656e74206f72207365727669636581525060200191505060405180910390fd5b610e838184611374565b50505050565b600081815481101515610e9857fe5b9060005260206000209060060201600091509050806000015490806001015490806002015490806003018054600181600116156101000203166002900480601f016020809104026020016040519081016040528092919081815260200182805460018160011615610100020316600290048015610f565780601f10610f2b57610100808354040283529160200191610f56565b820191906000526020600020905b815481529060010190602001808311610f3957829003601f168201915b5050505050908060040160009054906101000a900460ff16908060050154905086565b60075481565b6000806000600484815481101515610f9357fe5b906000526020600020906003020160000154600485815481101515610fb457fe5b906000526020600020906003020160010154600486815481101515610fd557fe5b906000526020600020906003020160020160009054906101000a900460ff169250925092509193909250565b600080600060606000808660008881548110151561101b57fe5b90600052602060002090600602016001015460008981548110151561103c57fe5b90600052602060002090600602016002015460008a81548110151561105d57fe5b906000526020600020906006020160030160008b81548110151561107d57fe5b906000526020600020906006020160040160009054906101000a900460ff1660008c8154811015156110ab57fe5b906000526020600020906006020160050154828054600181600116156101000203166002900480601f0160208091040260200160405190810160405280929190818152602001828054600181600116156101000203166002900480156111525780601f1061112757610100808354040283529160200191611152565b820191906000526020600020905b81548152906001019060200180831161113557829003601f168201915b5050505050925095509550955095509550955091939550919395565b60048181548110151561117d57fe5b90600052602060002090600302016000915090508060000154908060010154908060020160009054906101000a900460ff16905083565b6000806000905060008090505b60035481101561120957836002828154811015156111db57fe5b90600052602060002090600202016000015414156111fc5760019150611209565b80806001019150506111c1565b5080915050919050565b60036000815480929190600101919050555060026040805190810160405280848152602001838152509080600181540180825580915050906001820390600052602060002090600202016000909192909190915060008201518160000155602082015181600101908051906020019061128d9291906115e5565b505050505050565b600160008154809291906001019190505550600060c0604051908101604052808781526020018681526020018581526020018481526020016000151581526020018381525090806001815401808255809150509060018203906000526020600020906006020160009091929091909150600082015181600001556020820151816001015560408201518160020155606082015181600301908051906020019061133f9291906115e5565b5060808201518160040160006101000a81548160ff02191690831515021790555060a082015181600501555050505050505050565b60056000815480929190600101919050555060008181548110151561139557fe5b906000526020600020906006020160040160009054906101000a900460ff16151515611429576040517f08c379a00000000000000000000000000000000000000000000000000000000081526004018080602001828103825260128152602001807f536572766963652069732065787069726564000000000000000000000000000081525060200191505060405180910390fd5b60008181548110151561143857fe5b90600052602060002090600602016001015460008281548110151561145957fe5b9060005260206000209060060201600201541015156114e0576040517f08c379a00000000000000000000000000000000000000000000000000000000081526004018080602001828103825260138152602001807f566f6c756e74656572732065786365656465640000000000000000000000000081525060200191505060405180910390fd5b6000818154811015156114ef57fe5b906000526020600020906006020160020160008154809291906001019190505550600460606040519081016040528060028581548110151561152d57fe5b90600052602060002090600202016000015481526020018381526020016000151581525090806001815401808255809150509060018203906000526020600020906003020160009091929091909150600082015181600001556020820151816001015560408201518160020160006101000a81548160ff02191690831515021790555050505080827f3c4829c231ab94cf5b9ddf0f2097e54c2f16aac7b2cfe6930beffaac364d04f060405160405180910390a35050565b828054600181600116156101000203166002900490600052602060002090601f016020900481019282601f1061162657805160ff1916838001178555611654565b82800160010185558215611654579182015b82811115611653578251825591602001919060010190611638565b5b5090506116619190611665565b5090565b61168791905b8082111561168357600081600090555060010161166b565b5090565b9056fea165627a7a7230582021467884825ae6b36a1567281d495370af5b1fc45361d113fd2a544f3222eaee0029",
  "source": "pragma solidity >=0.4.22 <0.6.0;\n\ncontract Volunteer {\n\n    struct ServiceProvider{\n        uint id;\n        string name;\n        Service[] services;\n    }\n\n    struct Service {\n        uint id;\n        uint maxNum;\n        uint currentNum; \n        string name;\n        bool completed;\n        uint credits;\n    }\n\n    struct Student {\n        uint id;\n        string name;\n    }\n\n    struct Volunteering {\n        uint studentID;\n        uint serviceID;\n        bool completed;\n    }\n\n    Service[] public services;\n    uint public servicesCount;\n\n    Student[] public students;\n    uint public studentsCount;\n\n    Volunteering[] public volunteerings;\n    uint public volunteeringsCount;\n\n    ServiceProvider[] public serviceProviders;\n    uint public serviceProvidersCount;\n\n\n\n    function addService (uint _id, uint _max, uint _current, string memory _name, uint credits) private {\n        servicesCount ++;\n        services.push(Service({\n            id: _id,\n            maxNum: _max,\n            currentNum: _current,\n            name: _name,\n            completed: false,\n            credits: credits\n        }));\n    }\n\n    function addStudent (uint _id, string memory _name) private {\n        studentsCount ++;\n        students.push(Student({\n            id: _id,\n            name: _name\n        }));\n\n    }\n\n    function addVolunteering (uint studentID, uint serviceID) private {\n        volunteeringsCount ++;\n        \n        require(!services[serviceID].completed, \"Service is expired\");\n        require(services[serviceID].currentNum < services[serviceID].maxNum, \"Volunteers exceeded\");\n        services[serviceID].currentNum++;\n\n        volunteerings.push(Volunteering({\n            studentID: students[studentID].id,\n            serviceID: serviceID,\n            completed: false\n        }));\n        emit EstablishVolunteering(studentID, serviceID);\n    }\n\n    function addServiceProvider(uint id, string memory name) private {\n        serviceProvidersCount++;\n        serviceProviders.push(ServiceProvider({\n            id: id,\n            name: name,\n            services: new Service[](100)\n        }));\n    }\n\n    function completeVolunteering(uint volunteeringID) public {\n        volunteerings[volunteeringID].completed = true;\n        emit ApproveVolunteeringCompletion(volunteeringID);\n    }\n\n    function completeService(uint serviceID) public {\n        services[serviceID].completed = true;\n        emit ApproveServiceCompletion(serviceID);\n    }\n\n\n    event EstablishVolunteering (\n        uint indexed _studentID,\n        uint indexed _serviceID\n    );\n\n    event ApproveVolunteeringCompletion(\n        uint indexed _volunteeringID\n    );\n\n    event ApproveServiceCompletion(\n        uint indexed _serviceID\n    );\n\n    // Setters\n\n    function setService(string memory name, uint max, uint current, uint credits) public {\n        addService(services.length, max, current, name, credits);\n    }\n\n    function setStudent(uint id, string memory name) public {\n        addStudent(id, name);\n    }\n\n    function setVolunteering(uint studentID, uint serviceID) public {\n        bool found = false;\n        uint studentListID;\n        for(uint i = 0; i < studentsCount; i++){\n            if(students[i].id == studentID){\n                studentListID = i;\n                found = true;\n                break;\n            }\n        }\n\n        require(found, \"Student is not found\");\n        require(\n            studentListID < studentsCount && serviceID < servicesCount,\n            \"Invalid ID of student or service\"\n        );\n        addVolunteering(studentListID, serviceID);\n    }\n\n    // Getters\n\n    function getService(uint id) public view\n        returns(\n        uint, \n        uint, \n        uint,\n        string memory,\n        bool,\n        uint\n        ) {\n        return(\n            id,\n            services[id].maxNum,\n            services[id].currentNum,\n            services[id].name,\n            services[id].completed,\n            services[id].credits\n        );\n    }\n\n    function getStudent(uint id) public view returns(uint, uint, string memory) {\n        require(studentExists(id), \"Student does not exist.\");\n        return(\n            id,\n            students[id].id,\n            students[id].name\n        );\n    }\n\n    function getVolunteering(uint id) public view\n        returns(\n        uint,\n        uint,\n        bool\n        ) {\n        return(\n            volunteerings[id].studentID,\n            volunteerings[id].serviceID,\n            volunteerings[id].completed\n        );\n    }\n\n    function studentExists(uint id) public view returns( bool ){\n        bool exists = false;\n        for(uint i = 0; i < studentsCount; i++){\n            if(students[i].id == id){\n                exists = true;\n                break;\n            }\n        }\n        return (exists);\n    }\n\n\n    // Constructor\n    constructor () public {\n        setService(\"Service1\", 20, 10, 4);\n        setStudent(16012786, \"Student1\");\n\n        setService(\"Service2\", 10, 5, 4);\n        setStudent(16013086, \"Student2\");\n\n        setService(\"Service3\", 15, 7, 4);\n        setStudent(16014086, \"Student3\");\n    }\n}\n",
  "sourcePath": "/home/farshed/Documents/undefined_client/contracts/Volunteer.sol",
  "compiler": {
    "name": "solc",
    "version": "0.5.0+commit.1d4f565a.Emscripten.clang"
  },
  "schemaVersion": "3.0.0",
  "updatedAt": "2018-12-27T14:51:20.236Z",
  "devdoc": {
    "methods": {}
  },
  "userdoc": {
    "methods": {}
  }
}